:100000000C94BC000C94E4000C94E4000C94E40008
:100010000C94E4000C94E4000C94E4000C94E400D0
:100020000C94E4000C94E4000C94E4000C94E400C0
:100030000C94E4000C94E4000C94E4000C94E400B0
:100040000C94B6030C94E4000C94C9020C94A30223
:100050000C94E4000C94E4000C94E4000C94E40090
:100060000C94C6060C94E400005EBCE2613FDD83A4
:10007000C29C7E20A3FD1F41009D23BE46DB65F888
:100080008C11AF32CA57E974000000002500280027
:100090002B0000000000240027002A004F53507955
:1000A00020706C7567696E2061697274656D70206F
:1000B00068756D6900000000002300260029000417
:1000C00004040404040404020202020202030303FF
:1000D00003030301020408102040800102040810F9
:1000E00020010204081020000000080002010000A6
:1000F000030407000000000000000043687962610B
:10010000203630207365632100206D732E00546902
:100110006B2049324320763A2000493243206275F1
:10012000666665722028302D323929002E003A206B
:10013000003A202D00526F7A6C6F7A656E612074E0
:1001400065706C6F746120004F4B004E6163697481
:10015000616D207465706C6F74752E2E2E00207387
:1001600065632E005265737461727420435055208C
:100170007A613A2000004E0A11241FBECFEFD8E06A
:10018000DEBFCDBF11E0A0E0B1E0E2E8FFE102C0D8
:1001900005900D92AA34B107D9F723E0AAE4B1E0A3
:1001A00001C01D92AE39B207E1F710E0CCEBD0E010
:1001B00004C02197FE010E94B40FCB3BD107C9F7C1
:1001C0000E94FB0A0C94BF0F0C940000FC01538D9D
:1001D000448D252F30E0842F90E0821B930B541721
:1001E00010F0CF96089501970895FC01918D828DAE
:1001F000981761F0828DDF01A80FB11D5D968C917B
:10020000928D9F5F9F73928F90E008958FEF9FEF85
:100210000895FC01918D828D981731F0828DE80F41
:10022000F11D858D90E008958FEF9FEF0895FC01FB
:10023000918D228D892F90E0805C9F4F821B9109C8
:100240008F73992708958DE092E00E94170121E0B5
:10025000892B09F420E0822F0895FC01848DDF01B1
:10026000A80FB11DA35ABF4F2C91848D90E0019629
:100270008F739927848FA689B7892C93A089B18918
:100280008C9180648C93938D848D981306C0028822
:10029000F389E02D80818F7D80830895EF92FF9216
:1002A0000F931F93CF93DF93EC0181E0888F9B8D99
:1002B0008C8D981305C0E889F989808185FD24C05B
:1002C000F62E0B8D10E00F5F1F4F0F731127E02EDE
:1002D0008C8DE8120CC00FB607FCFACFE889F989BB
:1002E000808185FFF5CFCE010E942D01F1CF8B8D4E
:1002F000FE01E80FF11DE35AFF4FF0820B8FEA89F0
:10030000FB898081806207C0EE89FF896083E8896C
:10031000F98980818064808381E090E0DF91CF91D2
:100320001F910F91FF90EF900895CF93DF93EC0111
:10033000888D8823C9F0EA89FB89808185FD05C005
:10034000A889B9898C9186FD0FC00FB607FCF5CF3F
:10035000808185FFF2CFA889B9898C9185FFEDCF87
:10036000CE010E942D01E7CFDF91CF91089580E06B
:1003700090E0892B29F00E94230181110C94000048
:1003800008953FB7F8948091D8019091D901A09138
:10039000DA01B091DB0126B5A89B05C02F3F19F00B
:1003A0000196A11DB11D3FBFBA2FA92F982F8827F5
:1003B000820F911DA11DB11DBC01CD0142E0660F50
:1003C000771F881F991F4A95D1F7089585ED80936F
:1003D000BC008091BC0084FDFCCF1092DE0108952A
:1003E00040918C01262F30E0240F311D2132310540
:1003F000DCF42091DE012430C9F4FC0180E090E0BF
:10040000861758F430918C012191DC01A459BE4F1C
:10041000A30FB11D2C930196F3CF80918C01680F2F
:1004200060938C0180E0089581E0089582E0089552
:10043000E091E701F091E801309729F01092E00196
:100440001092DF0109940895CF93DF93AC01E091FE
:100450006A01F0916B013097F1F09091E201809187
:10046000E1019817C0F090E0292F30E026173707F8
:1004700054F4D901A65BBE4FEA01C20FD31F888195
:100480008C939F5FF1CF1092E2016093E101CB0169
:10049000DF91CF910994DF91CF9108950895E09174
:1004A000E2018091E101E81730F4F0E0E65BFE4FF5
:1004B000808190E008958FEF9FEF08959091E20181
:1004C0008091E101981750F4E92FF0E0E65BFE4FD0
:1004D000208130E09F5F9093E20102C02FEF3FEF59
:1004E000C90108958091E10190E02091E201821B11
:1004F00091090895CF93DF9300D0CDB7DEB7CB013C
:10050000642F49835A830E94F0014981842F5A81C4
:10051000952F0F900F90DF91CF910895CF93DF9398
:100520001F92CDB7DEB7698361E0CE0101960E94CC
:10053000F00181E090E00F90DF91CF910895089550
:1005400080E090E008951F920F920FB60F92112451
:100550002F933F934F935F936F937F938F939F93CB
:10056000AF93BF93EF93FF938DE092E00E942D0134
:10057000FF91EF91BF91AF919F918F917F916F917B
:100580005F914F913F912F910F900FBE0F901F9051
:1005900018951F920F920FB60F9211242F938F93DD
:1005A0009F93EF93FF93E0911D02F0911E028081D3
:1005B000E0912302F091240282FD12C0908180918B
:1005C00026028F5F8F7320912702821751F0E091EE
:1005D0002602F0E0E35FFD4F958F8093260201C075
:1005E0008081FF91EF919F918F912F910F900FBE7E
:1005F0000F901F901895833081F028F4813099F086
:100600008230A1F008958730A9F08830B9F08430A5
:10061000D1F4809180008F7D03C0809180008F771E
:1006200080938000089584B58F7702C084B58F7D54
:1006300084BD08958091B0008F7703C08091B00091
:100640008F7D8093B00008951F93CF93DF93282F61
:1006500030E0F901E951FF4F8491F901ED52FF4F6C
:10066000D491F901E154FF4FC491CC23C9F0162F66
:1006700081110E94FB02EC2FF0E0EE0FFF1FE85704
:10068000FF4FA591B4918FB7F894111105C09C91BB
:10069000ED2FE095E92302C0EC91ED2BEC938FBF99
:1006A000DF91CF911F9108958F929F92AF92BF9249
:1006B000CF92DF92EF92FF926B017C010E94C10109
:1006C0004B015C01C114D104E104F104F1F00E947A
:1006D000C101DC01CB0188199909AA09BB09883E2F
:1006E0009340A105B10570F321E0C21AD108E108D9
:1006F000F10888EE880E83E0981EA11CB11CC1147D
:10070000D104E104F10419F7DDCFFF90EF90DF9001
:10071000CF90BF90AF909F908F9008952FB7F8948F
:100720006091D4017091D5018091D6019091D7014B
:100730002FBF08958091EA01882351F04EE150E0E7
:100740006BEE71E08AEA92E00E947A021092EA016E
:100750000E948E036093090270930A0280930B0239
:1007600090930C0281E08093E90108951F920F920B
:100770000FB60F9211242F933F938F939F93AF93B4
:10078000BF938091D4019091D501A091D601B091F1
:10079000D7013091D30123E0230F2D3720F40196A8
:1007A000A11DB11D05C026E8230F0296A11DB11D94
:1007B0002093D3018093D4019093D501A093D601C7
:1007C000B093D7018091D8019091D901A091DA011D
:1007D000B091DB010196A11DB11D8093D8019093CA
:1007E000D901A093DA01B093DB01BF91AF919F9142
:1007F0008F913F912F910F900FBE0F901F901895E2
:10080000DC0180E0615090F09D919827E92FEF7016
:10081000F0E0E859FF4F249192959F70E92FF0E0A6
:10082000E858FF4FE4918E2F8227ECCF0895FC010A
:1008300090810180F281E02DF8948181892B818360
:100840002281892F809528232283A7E0B0E0119789
:10085000F1F7218182238183A3E2B0E01197F1F7C0
:1008600080817894EFECF0E03197F1F7982381E004
:1008700009F480E00895FC0190810180F281E02D6F
:10088000892F809560FF12C0F89422818223828391
:100890008181892B8183A3E2B0E01197F1F78281F6
:1008A000982B9283789487ED90E011C0F894228180
:1008B000822382838181892B8183AFEFB0E01197FE
:1008C000F1F78281982B928378948FE090E00197E2
:1008D000F1F70895CF92DF92EF92FF920F931F935B
:1008E000CF93DF931F92CDB7DEB76C01E62E08E001
:1008F00010E0FF24F39461E08F2D8E2109F460E075
:10090000C60149830E943B04FF0C01501109498133
:100910000115110581F7411115C0F894D601119602
:10092000ED91FC91129791818C918095892381831F
:100930001196ED91FC91129792818C91809589236B
:10094000828378940F90DF91CF911F910F91FF9048
:10095000EF90DF90CF900895CF92DF92EF92FF92C9
:100960000F931F93CF93DF931F92CDB7DEB78C0108
:10097000F62E40E065E579830E946A04CF2C7981E8
:10098000D72E760188E0E80EF11CF60161916F0127
:1009900040E0C8010E946A04CE14DF04B1F70F9052
:1009A000DF91CF911F910F91FF90EF90DF90CF904B
:1009B0000895FC0190810180F281E02DF8948181FD
:1009C000292F20958223818378948DE743E050E09E
:1009D000815021F1DA011197F1F730813923C1F308
:1009E000F8948281822382838181892B8183789408
:1009F000ABE7B7E01197F1F7F894818128232183C1
:100A0000A3E1B1E01197F1F78081982381E009F02B
:100A100080E07894E3E6F6E03197F1F708956F927D
:100A20007F928F929F92AF92BF92CF92DF92EF927E
:100A3000FF920F931F93CF93DF931F92CDB7DEB733
:100A40008C01F42EFC018681978159830E94AC04AD
:100A500040E06EEBF801868197810E946A046F2C5A
:100A60005981752E5301F9E0AF0EB11CF801868053
:100A7000978088E0C82ED12CEE24E394F12CC40199
:100A80000E9417048111FE28EE0CF1E0CF1AD10864
:100A9000B1F7F301F1923F01EA15FB0539F7F801CF
:100AA000868197810E94D90491E0813009F090E01D
:100AB000892F0F90DF91CF911F910F91FF90EF90B1
:100AC000DF90CF90BF90AF909F908F907F906F906E
:100AD00008958F929F92AF92BF92CF92DF92EF9242
:100AE000FF920F931F93CF93DF93EC018E819F8131
:100AF0000E94D90440E06CEC8E819F810E946A04C0
:100B0000488164E48E819F810E946A048A818823DF
:100B100009F442C0E981E950E33040F4F0E0EE0F1F
:100B2000FF1FE050FF4F0081118102C00EEE12E066
:100B30008B818823F9F0888181111CC00E948E036B
:100B40004B015C016801110FEE08FF088E819F8147
:100B50000E941704813001F10E948E03DC01CB0159
:100B60008C199D09AE09BF0988159905AA05BB0511
:100B700068F312C0B801110F880B990BDF91CF9168
:100B80001F910F91FF90EF90DF90CF90BF90AF90AB
:100B90009F908F900C945403DF91CF911F910F91F0
:100BA000FF90EF90DF90CF90BF90AF909F908F908D
:100BB0000895EF92FF920F931F93CF93DF93CDB7DA
:100BC000DEB729970FB6F894DEBF0FBECDBFFB018D
:100BD0002081203169F17B018C01FC0186819781A4
:100BE0000E94D904882311F1AE014F5F5F4FB70116
:100BF000C8010E940F058823C9F068E0CE01019664
:100C00000E9400049985891311C08D818F3361F092
:100C100020F48F3159F489E00CC08F3519F08F37EB
:100C200039F004C08BE005C08AE003C080E001C059
:100C30008CE029960FB6F894DEBF0FBECDBFDF91D2
:100C4000CF911F910F91FF90EF900895EF92FF9237
:100C50000F931F93CF93DF93CDB7DEB728970FB6CF
:100C6000F894DEBF0FBECDBF8C01DC011696ED916E
:100C7000FC911797138615861486DF011B96339611
:100C80001E92AE17BF07E1F7F80114821582FF2408
:100C9000F394BE016F5F7F4FF801868197810E94B8
:100CA000D408882309F465C067E0CE0101960E944C
:100CB000000498858913EDCFD8018C91811126C04D
:100CC00016968D919C9117970E94D904BE016F5F73
:100CD0007F4FF801868197810E94AC0440E064EB6D
:100CE000D80116968D919C9117970E946A04F8017D
:100CF000868197810E941704E82ED80116968D915F
:100D00009C9117970E94D904EE2081F1F801E180AF
:100D1000BE016F5F7F4FC8010E94D9058E1520F478
:100D2000D80111968C9106C0BE016F5F7F4FC8013C
:100D30000E94D905F801818384818F5F8483898132
:100D4000883261F030F4803149F0823209F0A1CF6D
:100D500005C08B3319F0823409F09BCFD80115966A
:100D60008C9115978F5F15968C9393CFD801FC9239
:100D7000CDCF28960FB6F894DEBF0FBECDBFDF9162
:100D8000CF911F910F91FF90EF9008951F920F92B6
:100D90000FB60F9211242F933F934F935F936F934E
:100DA0007F938F939F93AF93BF93EF93FF93809124
:100DB000B900887F803609F49CC068F5883209F450
:100DC0005BC090F4803109F454C038F4882309F4EE
:100DD000F6C0883009F44DC0F6C0883109F44CC023
:100DE000803209F45DC0EFC0803409F468C048F473
:100DF000803309F455C0883309F0E5C08093AF0112
:100E0000D8C0803509F44FC0883509F45DC08834F6
:100E100009F0D9C0D6C0883909F4C7C0A8F488370A
:100E200009F467C038F4883609F463C0803709F4E0
:100E300060C0C9C0883809F4B8C0803909F45FC0FF
:100E4000803809F0C0C05BC0803B09F486C038F42C
:100E5000803A09F466C0883A09F47FC0B4C0803C87
:100E600009F4A7C0883C09F4A4C0883B09F48AC0EF
:100E7000AAC08091D20110C09091D1018091D0017F
:100E8000981770F5E091D10181E08E0F8093D10128
:100E9000F0E0E055FE4F80818093BB0085EC86C07A
:100EA0008093AF018EC0E091D10181E08E0F8093DD
:100EB000D1018091BB00F0E0E055FE4F808390911E
:100EC000D1018091D0016EC0E091D10181E08E0FFF
:100ED0008093D1018091BB00F0E0E055FE4F80830C
:100EE0008091DD0181116DC081E08093DC0184EA95
:100EF00061C083E08093DE011092AE01CFCF80917C
:100F0000AE01803208F051C0E091AE0181E08E0F59
:100F10008093AE018091BB00F0E0E257FE4F8083EA
:100F2000BDCF85EC8093BC001092DE018091AE01B4
:100F3000803230F4E091AE01F0E0E257FE4F1082D3
:100F40006091AE0170E0E091E301F091E4018EE880
:100F500091E009951092AE0136C084E08093DE01E5
:100F600010928D0110928C01E091E501F091E60163
:100F7000099580918C01811105C081E080938C01DD
:100F800010926C01E0918D0181E08E0F80938D01B4
:100F9000F0E0E459FE4F80818093BB0090918D0179
:100FA00080918C01981708F479CF85E88093BC0074
:100FB0000AC085EC8093BC001092DE0104C0109240
:100FC000AF010E94E601FF91EF91BF91AF919F9118
:100FD0008F917F916F915F914F913F912F910F90E2
:100FE0000FBE0F901F9018950F931F93CF93DF9311
:100FF0008C01C0E0D0E0F801EC0FFD1F6491662386
:1010000071F0E0910D02F0910E020190F081E02D5F
:101010008DE092E00995892B11F02196ECCFCE015D
:10102000DF91CF911F910F910895CF92DF92EF92B0
:10103000FF920F931F93CF93DF936C017A018B0183
:10104000C0E0D0E0CE15DF0589F0D8016D918D01AB
:10105000D601ED91FC910190F081E02DC60109953A
:10106000892B11F47E0102C02196ECCFC701DF91DC
:10107000CF911F910F91FF90EF90DF90CF90089547
:10108000009769F0FC0101900020E9F73197AF016A
:10109000481B590BBC018DE092E00C94150880E0D0
:1010A00090E00895CF93DF930E94F407EC018AE269
:1010B00091E00E9440088C0F9D1FDF91CF91089511
:1010C0008F929F92AF92BF920F931F93CF93DF9314
:1010D000CDB7DEB7A1970FB6F894DEBF0FBECDBF78
:1010E00019A2423008F44AE08E010F5D1F4F842E92
:1010F000912CA12CB12CA50194010E947E0FE62F0A
:10110000B901CA0101501109EA3014F4E05D01C0CF
:10111000E95CD801EC93232B242B252B61F7C80124
:101120000E944008A1960FB6F894DEBF0FBECDBF57
:10113000DF91CF911F910F91BF90AF909F908F90B3
:101140000895CF92DF92EF92FF92CF93DF936B01DE
:101150007C01E0910D02F0910E020190F081E02DF2
:101160006DE28DE092E00995EC0166277727CB01CF
:101170006C197D098E099F094AE00E9460088C0F56
:101180009D1FDF91CF91FF90EF90DF90CF9008955A
:10119000BC01990F880B990B97FD0C94A1084AE0AC
:1011A0000C9460080E94BA0FAF92BF92CF92DF9268
:1011B000EF92FF920F931F93CF93DF931F92CDB7C0
:1011C000DEB75C01D62EE72EFC018585811105C0B6
:1011D000C5010E94D904811106C0F5011386158648
:1011E000148680E065C040E060EFC5010E946A049B
:1011F00001E0F12CC12C11E0C5010E941704682FF9
:10120000C50169830E9417046981613019F4813036
:10121000B9F433C04F2D50E068131BC0F50183852E
:10122000181730F4E40FF51F8381802349F402C0BE
:10123000181731F060E0193058F4F501148708C030
:10124000F501EF0DF11D8381802B838361E009C0DF
:10125000C12EF501E40FF51F9381802F809589231E
:101260008383C5010E943B041F5F000F11F4F394B8
:1012700001E0F7E0FF1508F0BFCF113408F4ADCF5F
:10128000F501C386C11002C081E08587F501838125
:10129000882309F4A2CFD5011396ED2DFE2D9501DB
:1012A000255F3F4F8D918193A217B307D9F781E056
:1012B0000F90DF91CF911F910F91FF90EF90DF90F2
:1012C000CF90BF90AF9008950F931F93CF93DF936C
:1012D000CDB7DEB761970FB6F894DEBF0FBECDBFB6
:1012E0008C01DC011696ED91FC91179713861586FB
:1012F0001486DF011B9633961E92AE17BF07E1F7E7
:10130000BE01665F7F4FF801868197810E94D408F5
:10131000882341F067E0CE010A960E940004998973
:10132000891729F060E070E08EEF92EC5DC0D80183
:1013300016968D919C9117970E94D904882309F4E1
:1013400040C0AE014F5F5F4FBE01665F7F4FC80177
:101350000E940F058823A9F168E0CE0101960E9442
:101360000004998589132DC06981F8E06F9FB00151
:1013700011248A81282F30E0322F2227330F330F98
:10138000330F262B372B8A858031C9F4688570E0AE
:101390008F81AB01481B5109CA019695982F882768
:1013A000979587950E946A0F60517109207F53E0DD
:1013B000220F331F5A95E1F7620F731F04C0B90162
:1013C00002C060E874EE613854EE75070CF4AACFE1
:1013D000072E000C880B990B0E943C0E20E030E099
:1013E00040E05CE30E94C90E61960FB6F894DEBF40
:1013F0000FBECDBFDF91CF911F910F9108950F9335
:101400001F93CF93DF93DC0170E0AB014D525F4F30
:10141000FA01849161547F4FFB0124912223C1F092
:1014200030E0220F331FF901EE56FF4FC591D491E2
:1014300028573F4FF901059114912FB7F8949881DF
:10144000809598239883F8019081892380832FBF0A
:10145000FA0144914C93FB016491E62FF0E0EE0F0A
:10146000FF1FEB54FF4F8591949112969C938E939E
:1014700011971B961C921B971D961C921D971C96EC
:101480001C921C97FD013B9613961292EA17FB07DC
:10149000E1F7DF91CF911F910F910895EDE0F2E018
:1014A0001382128288EE93E0A0E0B0E084839583FB
:1014B000A683B7832AE031E03183208325EC30E036
:1014C0003587248724EC30E03787268720EC30E00E
:1014D000318B208B21EC30E0338B228B22EC30E0FF
:1014E000358B248B26EC30E0378B268B118E128EB9
:1014F000138E148EEAEAF2E01382128284839583BB
:10150000A683B7838CE191E09183808360E180E9D9
:1015100093E00E94FF096FE082E893E00E94FF09D8
:101520006EE084E793E00E94FF096CE086E693E0BA
:101530000E94FF096BE088E593E00E94FF096AE0E2
:101540008AE493E00E94FF09E6E3F3E080E993E098
:101550009783868314821582108299E0918381E0BB
:1015600082838383138A128AE2E2F3E022E833E083
:10157000378326831482158210829183828383832A
:10158000138A128AEEE0F3E024E733E03783268300
:10159000148215821082918382838383138A128A34
:1015A000EAEFF2E026E633E03783268314821582E1
:1015B0001082918382838383138A128AE6EEF2E09B
:1015C00028E533E0378326831482158210829183C5
:1015D00082838383138A128AE2EDF2E02AE433E005
:1015E00037832683148215821082918382838383BA
:1015F000138A128A0895CF93DF9300D000D000D0D1
:10160000CDB7DEB7789484B5826084BD84B581603F
:1016100084BD85B5826085BD85B5816085BD8091BD
:101620006E00816080936E00109281008091810035
:10163000826080938100809181008160809381002D
:10164000809180008160809380008091B1008460EF
:101650008093B1008091B00081608093B000809150
:101660007A00846080937A0080917A00826080930F
:101670007A0080917A00816080937A0080917A006C
:10168000806880937A001092C100E0911D02F09171
:101690001E0282E08083E0911902F0911A0210820A
:1016A000E0911B02F0911C0280E1808310922502E0
:1016B000E0912102F091220286E08083E0911F02F6
:1016C000F0912002808180618083E0911F02F0917F
:1016D0002002808188608083E0911F02F0912002C7
:1016E000808180688083E0911F02F09120028081D8
:1016F0008F7D80838CE990E00E9452088DE291E01A
:101700000E9440088AE291E00E94400899E288E144
:101710000FB6F894A895809360000FBE9093600078
:10172000A895E4EEF0E02491E0EDF0E084918823C8
:1017300099F090E0880F991FFC01EE56FF4FA5919C
:10174000B491FC01E857FF4F859194918FB7F894BD
:101750009C91292B2C938FBF86E08093BA0088E15F
:1017600092E09093E6018093E50184E292E0909309
:10177000E4018093E3011092E2011092E1011092E2
:10178000E0011092DF011092DE0181E08093DD0123
:101790001092DC0161E082E10E94240361E083E1B8
:1017A0000E9424038091B9008E7F8093B9008091BC
:1017B000B9008D7F8093B90088E48093B80085E4F8
:1017C0008093BC008AE993E09093E8018093E7015D
:1017D00086E393E00E94260682E293E00E942606BA
:1017E0008EE093E00E9426068AEF92E00E94260691
:1017F00086EE92E00E94260682ED92E00E94260686
:1018000038EE432E33E0532E612C712CA8950E94A4
:101810008E030091CE021091CF022091D002309120
:10182000D102DC01CB01801B910BA20BB30B883ED4
:101830009340A105B10508F4A7C10E948E036093EF
:10184000CE027093CF028093D0029093D102E8EF42
:10185000F0E08491E4EEF0E01491E0EDF0E004912A
:101860000023A1F081110E94FB02E02FF0E0EE0FB7
:10187000FF1FEB54FF4FA591B4918C91182391E079
:1018800080E009F490E0692F782F02C060E070E0FA
:10189000F1E06F2781E10E94240384E691E00E9439
:1018A000F4076091090270910A0280910B029091F5
:1018B0000C02A30192010E947E0F69017A018CE360
:1018C000C80ED11CE11CF11C0E948E03A3019201E1
:1018D0000E947E0FC701B601621B730B840B950B30
:1018E0004AE00E9460088EE591E00E945208A895A7
:1018F00086E393E00E94690582E293E00E94690515
:101900008EE093E00E9469058AEF92E00E946905EB
:1019100086EE92E00E94690582ED92E00E946905E0
:101920008BE491E00E94F40786E393E00E9464094F
:101930006093B6027093B7028093B8029093B90295
:1019400082E293E00E9464096093BA027093BB0242
:101950008093BC029093BD028EE093E00E946409E4
:101960006093BE027093BF028093C0029093C10245
:101970008AEF92E00E9464096093C2027093C302EE
:101980008093C4029093C50286EE92E00E9464099F
:101990006093C6027093C7028093C8029093C902F5
:1019A00082ED92E00E9464096093CA027093CB02B8
:1019B0008093CC029093CD0288E491E00E9452087B
:1019C00086EBC82E82E0D82E0FEE11E0EBEEF1E0B0
:1019D000FA83E9837F0122242394312C20E030E034
:1019E00040E251E4F60160817181828193810E941D
:1019F000C90EF601608371838283938385E391E04E
:101A00000E94F407C1010E94C808F60181909190DC
:101A1000A190B1906F0120E030E0A901C501B401AF
:101A20000E94FF0D87FF1BC020E030E0A901C50127
:101A3000B4010E94C40E18161CF4C501B40103C001
:101A4000C501B40190580E94040E7E836D8381E32A
:101A500091E00E94F40721E0F70120830CC0C5014A
:101A6000B4010E94040E7E836D838EE291E00E9499
:101A7000F407F70110828D819E816AE070E00E9478
:101A80006A0F5C01CB016AE070E00E946A0F882E49
:101A9000292F8D819E8164E670E00E946A0FCB0140
:101AA0006AE070E00E946A0F982E392F8D819E8126
:101AB00068EE73E00E946A0FCB016AE070E00E945A
:101AC0006A0F8D832C833B830E94C808892D3B813C
:101AD000932F0E94C808882D2C81922F0E94C8083D
:101AE0008CE291E00E94F407B5010B2C000C880BEE
:101AF000990BB7FE03C00E94A10803C04AE00E94F0
:101B000060088AE291E00E944008F801A0823197C3
:101B100080823197908231972D8120838FEF281A10
:101B2000380A0B5F1F4F95E0E90EF11CE7E02E1617
:101B3000310409F053CF8AE191E00E94F40710E0EC
:101B400005E0812F602F0E945E0F911104C086E492
:101B500091E00E944008E981FA816191FA83E9836A
:101B600070E080E090E04AE00E9460081F5F1E3154
:101B700041F788E491E00E9440088AE291E00E94E7
:101B8000400881E08093EA018091E9018823A9F06F
:101B90001092E9018EE091E00E94F4076091090241
:101BA00070910A0280910B0290910C024AE00E940F
:101BB000600889E091E00E9452080E948E03009123
:101BC000090210910A0220910B0230910C02005A76
:101BD00015412F4F3F4F061717072807390760F4A5
:101BE0008BEF90E00E94520864E670E080E090E0A5
:101BF0000E9454030C9400000E94B70107CE0E947B
:101C0000770E08F481E008950E940B0E6894B111DC
:101C10000C94BE0E08950E94A30E88F09F5798F072
:101C2000B92F9927B751B0F0E1F0660F771F881FE1
:101C3000991F1AF0BA95C9F714C0B13091F00E94FB
:101C4000BD0EB1E008950C94BD0E672F782F882744
:101C5000B85F39F0B93FCCF3869577956795B39522
:101C6000D9F73EF490958095709561957F4F8F4F91
:101C70009F4F0895E89409C097FB3EF49095809596
:101C8000709561957F4F8F4F9F4F9923A9F0F92F42
:101C900096E9BB279395F695879577956795B795C0
:101CA000F111F8CFFAF4BB0F11F460FF1BC06F5FA6
:101CB0007F4F8F4F9F4F16C0882311F096E911C0B8
:101CC000772321F09EE8872F762F05C0662371F0D9
:101CD00096E8862F70E060E02AF09A95660F771FED
:101CE000881FDAF7880F9695879597F90895990FC9
:101CF0000008550FAA0BE0E8FEEF16161706E807D6
:101D0000F907C0F012161306E407F50798F0621BF6
:101D1000730B840B950B39F40A2661F0232B242BCB
:101D2000252B21F408950A2609F4A140A6958FEFEA
:101D3000811D811D089557FD9058440F551F59F07E
:101D40005F3F71F04795880F97FB991F61F09F3FA8
:101D500079F087950895121613061406551FF2CFD1
:101D60004695F1DF08C0161617061806991FF1CF21
:101D700086957105610508940895E894BB27662748
:101D80007727CB0197F908950E94770E08F48FEF1B
:101D900008950E94DC0E0C944D0F0E943F0F38F006
:101DA0000E94460F20F0952311F00C94360F0C94EE
:101DB0003C0F11240C94BE0E0E949B0E70F3959F55
:101DC000C1F3950F50E0551F629FF001729FBB2732
:101DD000F00DB11D639FAA27F00DB11DAA1F649FCE
:101DE0006627B00DA11D661F829F2227B00DA11D81
:101DF000621F739FB00DA11D621F839FA00D611D07
:101E0000221F749F3327A00D611D231F849F600D27
:101E1000211D822F762F6A2F11249F5750409AF050
:101E2000F1F088234AF0EE0FFF1FBB1F661F771FDC
:101E3000881F91505040A9F79E3F510580F00C94A7
:101E4000360F0C94BE0E5F3FE4F3983ED4F38695B4
:101E500077956795B795F795E7959F5FC1F7FE2B47
:101E6000880F911D9695879597F9089597F99F6723
:101E700080E870E060E008959FEF80EC0895002412
:101E80000A941616170618060906089500240A94DF
:101E900012161306140605060895092E0394000C65
:101EA00011F4882352F0BB0F40F4BF2B11F460FFF4
:101EB00004C06F5F7F4F8F4F9F4F0895991B79E04C
:101EC00004C0991F961708F0961B881F7A95C9F7CA
:101ED0008095089597FB072E16F4009407D077FDA0
:101EE00009D00E94A00F07FC05D03EF49095819583
:101EF0009F4F0895709561957F4F0895A1E21A2E26
:101F0000AA1BBB1BFD010DC0AA1FBB1FEE1FFF1F9D
:101F1000A217B307E407F50720F0A21BB30BE40BED
:101F2000F50B661F771F881F991F1A9469F7609534
:101F30007095809590959B01AC01BD01CF010895EE
:101F4000AA1BBB1B51E107C0AA1FBB1FA617B707DF
:101F500010F0A61BB70B881F991F5A95A9F78095FB
:101F60009095BC01CD010895EE0FFF1F0590F491EF
:101F7000E02D099481E090E0F8940C94BF0FF89460
:021F8000FFCF91
:101F82005E00BC007701000000004E011508E6006B
:101F920095011701F5000901000000008E027A0286
:101FA200A0024E0272025E024F020D0A0048573A28
:101FB200322E302C2046573A312E302C20352E34FA
:0A1FC2002E32303138002C002000D0
:107E0000112484B714BE81FFF0D085E080938100F7
:107E100082E08093C00088E18093C10086E0809377
:107E2000C20080E18093C4008EE0C9D0259A86E02C
:107E300020E33CEF91E0309385002093840096BBD3
:107E4000B09BFECF1D9AA8958150A9F7CC24DD24C4
:107E500088248394B5E0AB2EA1E19A2EF3E0BF2EE7
:107E6000A2D0813461F49FD0082FAFD0023811F036
:107E7000013811F484E001C083E08DD089C08234E0
:107E800011F484E103C0853419F485E0A6D080C0E4
:107E9000853579F488D0E82EFF2485D0082F10E0AE
:107EA000102F00270E291F29000F111F8ED06801E7
:107EB0006FC0863521F484E090D080E0DECF843638
:107EC00009F040C070D06FD0082F6DD080E0C81688
:107ED00080E7D80618F4F601B7BEE895C0E0D1E017
:107EE00062D089930C17E1F7F0E0CF16F0E7DF06D8
:107EF00018F0F601B7BEE89568D007B600FCFDCFD4
:107F0000A601A0E0B1E02C9130E011968C91119780
:107F100090E0982F8827822B932B1296FA010C0160
:107F200087BEE89511244E5F5F4FF1E0A038BF0790
:107F300051F7F601A7BEE89507B600FCFDCF97BE46
:107F4000E89526C08437B1F42ED02DD0F82E2BD052
:107F50003CD0F601EF2C8F010F5F1F4F84911BD097
:107F6000EA94F801C1F70894C11CD11CFA94CF0C13
:107F7000D11C0EC0853739F428D08EE10CD085E9AC
:107F80000AD08FE07ACF813511F488E018D01DD067
:107F900080E101D065CF982F8091C00085FFFCCF94
:107FA0009093C60008958091C00087FFFCCF809118
:107FB000C00084FD01C0A8958091C6000895E0E648
:107FC000F0E098E1908380830895EDDF803219F02E
:107FD00088E0F5DFFFCF84E1DECF1F93182FE3DFCA
:107FE0001150E9F7F2DF1F91089580E0E8DFEE27F6
:047FF000FF270994CA
:027FFE00040479
:0400000300007E007B
:00000001FF
