:100000000C9498000C94C0000C94C0000C94C00098
:100010000C94C0000C94C0000C94C0000C94C00060
:100020000C94C0000C94C0000C94C0000C94C00050
:100030000C94C0000C94C0000C94C0000C94C00040
:100040000C9434040C94C0000C9402040C94DC0353
:100050000C94C0000C94C0000C94C0000C94C00020
:100060000C947E040C94C0000000000024002700C3
:100070002A0000000000250028002B004F53507973
:1000800020706C7567696E2074616E6B206D6F6E89
:1000900069746F7200000000080002010000030490
:1000A0000700000000000000000000000023002600
:1000B00000290004040404040404040202020202ED
:1000C000020303030303030102040810204080011C
:1000D00002040810200102040810204368796261BC
:1000E0002036302073656321000000206D732E00E0
:1000F00054696B204932432062796C20763A2000A3
:10010000207365632E0052657374617274204350CE
:1001100055207A613A20002C206F75743A20002C0B
:100120002063616C3A200050696E673A2000E20556
:1001300011241FBECFEFD8E0DEBFCDBF11E0A0E09D
:10014000B1E0E4E2F7E102C005900D92A234B107FC
:10015000D9F722E0A2E4B1E001C01D92AF3AB207A4
:10016000E1F710E0C8E9D0E004C02197FE010E9449
:10017000420AC739D107C9F70E9489060C94900B2F
:100180000C940000E091DB01F091DC01309729F044
:100190001092D4011092D301099408950895AF925A
:1001A000BF92CF92DF92EF92FF920F931F93CF9364
:1001B000DF936C017B018B01040F151FEB015E01C6
:1001C000AE18BF08C017D10759F06991D601ED915B
:1001D000FC910190F081E02DC6010995892B79F7FA
:1001E000C501DF91CF911F910F91FF90EF90DF90AC
:1001F000CF90BF90AF900895FC01538D448D252F73
:1002000030E0842F90E0821B930B541710F0CF96B0
:10021000089501970895FC01918D828D981761F0E2
:10022000A28DAE0FBF2FB11D5D968C91928D9F5FF9
:100230009F73928F90E008958FEF9FEF0895FC01D8
:10024000918D828D981731F0828DE80FF11D858D8B
:1002500090E008958FEF9FEF0895FC01918D228D1E
:10026000892F90E0805C9F4F821B91098F739927A3
:10027000089585EF91E00E942D0121E0892B09F47A
:1002800020E0822F089580E090E0892B29F00E94E1
:10029000390181110C9400000895FC01A48DA80F70
:1002A000B92FB11DA35ABF4F2C91848D90E00196B8
:1002B0008F739927848FA689B7892C93A089B189D8
:1002C0008C91837080648C93938D848D981306C079
:1002D0000288F389E02D80818F7D80830895EF92DD
:1002E000FF920F931F93CF93DF93EC0181E0888FF0
:1002F0009B8D8C8D98131AC0E889F989808185FFC0
:1003000015C09FB7F894EE89FF896083E889F98961
:1003100080818370806480839FBF81E090E0DF9163
:10032000CF911F910F91FF90EF900895F62E0B8DB6
:1003300010E00F5F1F4F0F731127E02E8C8D8E1171
:100340000CC00FB607FCFACFE889F989808185FFD8
:10035000F5CFCE010E944D01F1CFEB8DEC0FFD2FBB
:10036000F11DE35AFF4FF0829FB7F8940B8FEA8993
:10037000FB8980818062CFCF0F931F93CF93DF9350
:100380008C01D0E0C0E0F801EC0FFD1F6491662302
:1003900041F085EF91E00E946F01892B11F02196C9
:1003A000F2CFCE01DF91CF911F910F910895CF939E
:1003B000DF93EC01888D8823B9F0AA89BB89E8898D
:1003C000F9898C9185FD03C0808186FD0DC00FB633
:1003D00007FCF7CF8C9185FFF2CF808185FFEDCFB1
:1003E000CE010E944D01E9CFDF91CF910895833076
:1003F00081F028F4813099F08230A9F00895873097
:10040000A9F08830C9F08430B1F4809180008F7DEC
:1004100003C0809180008F7780938000089584B519
:100420008F7784BD089584B58F7DFBCF8091B00018
:100430008F778093B00008958091B0008F7DF9CFC1
:100440001F93CF93DF93282F30E0F901EB56FF4F36
:100450008491F901E953FF4FD491F901ED54FF4F15
:10046000C491CC23A9F0162F81110E94F701EC2F23
:10047000F0E0EE0FFF1FEE58FF4FA591B4918FB73C
:10048000F894EC91111108C0D095DE23DC938FBF56
:10049000DF91CF911F910895DE2BF8CFCF93DF939B
:1004A00090E0FC01E953FF4F24918D549F4FFC01D4
:1004B00084918823D1F090E0880F991FFC01E859BE
:1004C000FF4FA591B491FC01EE58FF4FC591D49117
:1004D000623071F49FB7F8943C91822F809583230A
:1004E0008C93E8812E2B28839FBFDF91CF910895B5
:1004F0008FB7F894EC912E2B2C938FBFF6CF3FB78C
:10050000F8948091CC019091CD01A091CE01B09151
:10051000CF0126B5A89B05C02F3F19F00196A11D5C
:10052000B11D3FBFBA2FA92F982F8827BC01CD013D
:10053000620F711D811D911D42E0660F771F881F9C
:10054000991F4A95D1F708958F929F92AF92BF92CB
:10055000CF92DF92EF92FF924B015C010E947F02EB
:100560006B017C010E947F026C197D098E099F0935
:10057000683E734081059105A8F321E0821A910835
:10058000A108B10888EEC80E83E0D81EE11CF11C5A
:1005900081149104A104B10429F7FF90EF90DF903A
:1005A000CF90BF90AF909F908F90089585ED8093EE
:1005B000BC0010926301109262018091BC0084FF24
:1005C0000BC02091620130916301809100019091F4
:1005D00001012817390718F01092D201089580916F
:1005E000620190916301019690936301809362018F
:1005F000E4CF20918401260F3327331F21323105A8
:10060000ECF42091D201FC0190E080E0243069F00C
:1006100082E00895A09184012191AC014C595E4F74
:10062000A40FB52FB11D2C930196861798F38091D6
:100630008401680F6093840180E0089581E008954B
:100640000895E091D6018091D501E81730F4F0E0EB
:10065000EE5BFE4F808190E008958FEF9FEF08954D
:100660009091D6018091D5012FEF3FEF981748F474
:10067000E92FF0E0EE5BFE4F208130E09F5F90932A
:10068000D601C90108958091D5019091D601891BA9
:10069000990B0895CF93DF93CB01EA01642F0E9459
:1006A000F902CE01DF91CF910895CF93DF931F928E
:1006B000CDB7DEB7698361E0CE0101960E94F902F1
:1006C00081E090E00F90DF91CF91089590E080E07D
:1006D000089581E08093F4018091EB01882341F03B
:1006E00042E050E061EE71E082E992E00C944A034E
:1006F0001092E1011092E201F3CFFC010190002081
:10070000E9F73197AF01481B590BBC0185EF91E028
:100710000C94CF00CF93DF930E94BC01EC018CE2DC
:1007200091E00E947D038C0F9D1FDF91CF91089572
:100730008F929F92AF92BF920F931F93CF93DF93AD
:10074000CDB7DEB7A1970FB6F894DEBF0FBECDBF11
:1007500019A2423008F44AE08E010F5D1F4F842E2B
:10076000912CB12CA12CA50194010E94200AE62F06
:10077000B901CA01EA30F4F4E05DD801EE938D01CD
:10078000232B242B252B79F790E080E0109719F08C
:10079000CD010E947D03A1960FB6F894DEBF0FBE77
:1007A000CDBFDF91CF911F910F91BF90AF909F90E0
:1007B0008F900895E95CE1CF1F920F920FB60F92D0
:1007C00011242F933F934F935F936F937F938F9356
:1007D0009F93AF93BF93EF93FF9385EF91E00E94B8
:1007E0004D01FF91EF91BF91AF919F918F917F91BB
:1007F0006F915F914F913F912F910F900FBE0F908E
:100800001F9018951F920F920FB60F9211242F93DD
:100810008F939F93EF93FF93E0910502F09106026F
:100820008081E0910B02F0910C0282FD1BC090814F
:1008300080910E028F5F8F7320910F02821741F01B
:10084000E0910E02F0E0EB50FE4F958F80930E0288
:10085000FF91EF919F918F912F910F900FBE0F906D
:100860001F9018958081F4CF1F920F920FB60F92B0
:1008700011242F933F938F939F93AF93BF938091B6
:10088000DD019091DE01A091DF01B091E001309196
:10089000CB0123E0230F2D3758F50196A11DB11D83
:1008A0002093CB018093DD019093DE01A093DF01C3
:1008B000B093E0018091CC019091CD01A091CE0147
:1008C000B091CF010196A11DB11D8093CC019093F1
:1008D000CD01A093CE01B093CF01BF91AF919F9175
:1008E0008F913F912F910F900FBE0F901F901895F1
:1008F00026E8230F0296A11DB11DD2CF1F920F92A1
:100900000FB60F9211242F933F934F935F936F93E2
:100910007F938F939F93AF93BF93EF93FF938091B8
:10092000B900887F803609F44AC0F0F5883209F4AE
:10093000A7C018F5803109F49BC0B8F4882309F4E6
:10094000F9C0883009F494C0FF91EF91BF91AF9145
:100950009F918F917F916F915F914F913F912F91D7
:100960000F900FBE0F901F901895883109F488C022
:10097000803251F78093A70114C0803409F49DC0E0
:1009800040F48033B9F38833F9F68093A70185ECFE
:10099000B0C0803509F485C0883509F496C0883424
:1009A00099F60E94D602D0CF883909F48CC038F568
:1009B000883729F050F4883611F0803729F683E023
:1009C0008093D2011092A60157C0883809F47BC0E9
:1009D000803919F0803809F0B7CF8091A6018032B4
:1009E00008F071C0E091A60181E08E0F8093A6010E
:1009F0008091BB00F0E0EA57FE4F80833DC0803B12
:100A000039F0E0F4803A09F479C0883A09F09CCFD3
:100A100084E08093D2011092850110928401E091CC
:100A2000D901F091DA0109958091840181110FC0FB
:100A300081E0809384011092640109C0803C09F434
:100A4000A6CF883C09F4A3CF883B09F07DCFE09185
:100A5000850181E08E0F80938501F0E0EC59FE4F17
:100A600080818093BB00909185018091840129C091
:100A70008091CA018093BB0085EC8093BC0064CF59
:100A80009091C9018091C801981758F5E091C9016A
:100A900081E08E0F8093C901F0E0E855FE4F808120
:100AA000E9CFE091C90181E08E0F8093C901809167
:100AB000BB00F0E0E855FE4F80839091C901809122
:100AC000C8019817C8F285E8D8CFE091C90181E044
:100AD0008E0F8093C9018091BB00F0E0E855FE4F76
:100AE00080838091D10181115CCF81E08093D0011E
:100AF00084EA8093BC001092D20126CF85EC8093CB
:100B0000BC001092D2018091A601803230F4E091B5
:100B1000A601F0E0EA57FE4F10826091A60170E056
:100B2000E091D701F091D80186E891E00995109203
:100B3000A6010ACF1092A70134CFCF92DF92EF9295
:100B4000FF920F931F93E82FF92F05C00150110951
:100B50002109310961F1908196239417B9F305C0F9
:100B6000015011092109310911F190819623941343
:100B7000F7CFC12CD12CE12CF12C0AC08FEFC81A71
:100B8000D80AE80AF80A0C151D052E053F0579F06C
:100B900080818623841791F36C2D7D2D8E2D9F2DC2
:100BA0001F910F91FF90EF90DF90CF90089560E03C
:100BB00070E080E090E01F910F91FF90EF90DF9048
:100BC000CF900895CF931092F8011092F70188EE1C
:100BD00093E0A0E0B0E08093F9019093FA01A09334
:100BE000FB01B093FC012CE031E03093F60120933F
:100BF000F50125EC30E0309302022093010224EC51
:100C000030E0309304022093030220EC30E0309374
:100C100006022093050221EC30E030930802209375
:100C2000070222EC30E030930A022093090226ECFE
:100C300030E030930C0220930B0210920E021092BF
:100C40000F0210921002109211021092950210924F
:100C500094028093960290939702A0939802B09387
:100C600099028EE191E0909393028093920284E640
:100C700080939E02C2E3C0939F0262E070E084E62C
:100C800090E00E94480A9093A1028093A00261E044
:100C900070E084E690E00E94480A9093A30280935B
:100CA000A20261E070E084E690E00E94480A90931E
:100CB000A5028093A402C093A6021092A7021092EC
:100CC000A8021092A9021092AA0280E090919E02BE
:100CD0008917E8F4282F30E0E091A202F091A302F6
:100CE000E20FF31F8083E091A402F091A502E20FCE
:100CF000F31F8083220F331F4091A0025091A10265
:100D0000240F351FF901118210828F5FDFCFCF9141
:100D10000895789484B5826084BD84B5816084BD73
:100D200085B5826085BD85B5816085BD80916E0089
:100D3000816080936E0010928100809181008260BA
:100D400080938100809181008160809381008091F7
:100D500080008160809380008091B10084608093E6
:100D6000B1008091B00081608093B00080917A00E2
:100D7000846080937A0080917A00826080937A0008
:100D800080917A00816080937A0080917A008068F7
:100D900080937A001092C10061E083E00E944E02CD
:100DA00060E083E00E942002E0910502F0910602DB
:100DB00082E08083E0910102F09102021082E091D2
:100DC0000302F091040280E1808310920D02E09111
:100DD0000902F0910A0286E08083E0910702F09117
:100DE0000802808180618083E0910702F09108020F
:100DF000808188608083E0910702F0910802808101
:100E000080688083E0910702F091080280818F7DE5
:100E100080838CE790E00E948A038FE291E00E9439
:100E20007D038CE291E00E947D0368EE73E080E038
:100E300090E00E94A40288E199E20FB6F894A89588
:100E4000809360000FBE90936000A89588E0809327
:100E5000BA0082EC90E09093DA018093D9018EEC95
:100E600090E09093D8018093D7011092D601109210
:100E7000D5011092D4011092D3011092BC001092AF
:100E8000D20181E08093D1011092D00161E082E132
:100E90000E94200261E083E10E9420028091B9005B
:100EA0008E7F8093B9008091B9008D7F8093B900C7
:100EB00088E48093B80085E48093BC0089E693E0E1
:100EC0009093DC018093DB0161E082E00E944E029E
:100ED00062E084E00E944E0258EE452E53E0552E0B
:100EE000612C712C40E0242E40E0342E8091F401DE
:100EF0008823A9F02FB7F8948091DD019091DE014D
:100F0000A091DF01B091E0012FBF8093F001909399
:100F1000F101A093F201B093F3011092F401A895AE
:100F20008FB7F894C090DD01D090DE01E090DF0132
:100F3000F090E0018FBF8091EC019091ED01A091C4
:100F4000EE01B091EF01A7019601281B390B4A0B66
:100F50005B0BDA01C9018397A105B10508F4DBC079
:100F6000C092EC01D092ED01E092EE01F092EF011F
:100F70008091EB01811125C0E8E9F0E08491EAEC71
:100F8000F0E0D491E6EBF0E0C49170E060E0CC23B7
:100F900099F081110E94F701EC2FF0E0EE0FFF1F96
:100FA000E755FF4FA591B4918C91D82391E080E053
:100FB00009F490E0692F782FF1E06F2783E00E9419
:100FC000200260E082E00E94200283E090E001972E
:100FD000F1F761E082E00E9420028BE490E001974B
:100FE000F1F760E082E00E942002EBECF0E0649117
:100FF000E7EBF0E08491E82FF0E0EE0FFF1FE755FC
:10100000FF4F8591949100E61AEE20E030E0462FE4
:101010000E949D05611571058105910529F06F5F9D
:101020007F4F8F4F9F4F9F702AE330E040E050E0AA
:101030000E94200A3093EA012093E90180919E02E8
:101040000FEF080F8091A602C82FD0E0FE01EE0F2F
:10105000FF1F6091A0027091A102E60FF71F60814F
:101060007181C901861B970B092E000CAA0BBB0BC3
:101070008090A7029090A802A090A902B090AA0226
:10108000880E991EAA1EBB1E8092A7029092A802EB
:10109000A092A902B092AA02318320832091A402D7
:1010A0003091A502A9014C0F5D1FFA01A080A1108B
:1010B0000CC1E091A6022091A4023091A502E20F9A
:1010C000F32FF11D2081201708F460C18091A60242
:1010D0008F5F8093A60290919E02891302C01092A6
:1010E000A60220919F028091A2029091A302820FFA
:1010F000911DFC01808190E0880F991F2091A00232
:101100003091A102820F931FFC0180819181909305
:10111000E8018093E7018091E3019091E401A091BF
:10112000E501B091E601A7019601281B390B4A0B96
:101130005B0BDA01C901883E9340A105B10508F4B3
:101140007AC0C092E301D092E401E092E501F0920E
:10115000E60187E291E00E94BC016091E901709193
:10116000EA0190E080E04AE00E9498038FE191E07C
:101170000E94BC014AE060E070E0CB010E9498034D
:1011800087E191E00E94BC016091E7017091E80164
:1011900090E080E04AE00E9498038CE291E00E9497
:1011A0007D0386E091E00E94BC016091F0017091A6
:1011B000F1018091F2019091F301A30192010E944B
:1011C000200A69017A018CE3C80ED11CE11CF11CD4
:1011D0002FB7F8946091DD017091DE018091DF01FD
:1011E0009091E0012FBFA30192010E94200AC70144
:1011F000B601621B730B840B950B4AE00E949803A7
:1012000080E091E00E948A0380EF90E00E94BC01A0
:101210006091F0017091F1018091F2019091F301E0
:101220004AE00E9498038BEE90E00E948A038AEEC7
:1012300090E00E948A038091E7019091E8019093E9
:10124000E1018093E2014A9708F4F7C081E08093BE
:10125000EB0161E083E00E9420028FB7F894409197
:10126000DD015091DE016091DF017091E0018FBFDF
:101270008091F0019091F101A091F201B091F30100
:10128000805A9541AF4FBF4F84179507A607B70700
:1012900080F489EE90E00E948A038BED90E00E943A
:1012A0008A0364E670E080E090E00E94A4020C945F
:1012B00000002114310409F419CE0E943901882359
:1012C00009F410CE0E9400000DCE2A2D30E090E0EF
:1012D000AA94B12CA21AB30AA091A002B091A102C3
:1012E0004091A2025091A302B501620F731FFA014F
:1012F000E60FF71F1081E091A602F0E0EE0FFF1F4E
:10130000EA0FFB1FC12FD0E0CC0FDD1FAC0FBD1FBC
:101310000190F081E02D0D90BC91A02DEA17FB0704
:101320008CF5420F531FFA011083E091A202F09155
:10133000A302E60FF71FE0814091A4025091A5029D
:10134000E40FF52FF11D90819F5F90839091A6028D
:101350004091A2025091A302640F751FFB0190837C
:10136000E091A6024091A4025091A502E40FF52F4E
:10137000F11D9081915090832150310991E021110C
:10138000ABCFA4CE992309F494CEA0CE30E0802F29
:1013900090E0C091A002D091A102E091A6026091DC
:1013A000A2027091A302281739070CF08FCEA90171
:1013B0004F5F5F4FDB01A40FB51F1C91F0E0EE0FF4
:1013C000FF1FEC0FFD1FA12FB0E0AA0FBB1FAC0F3A
:1013D000BD1FC081D181ED91FC91EC17FD070CF090
:1013E00075CE260F371FF9011083E091A202F0910C
:1013F000A302E40FF51FE0812091A4023091A50221
:10140000E20FF32FF11D2081215020832091A602AD
:10141000E091A202F091A302E40FF51F2083E09176
:10142000A6022091A4023091A502E20FF32FF11D34
:1014300020812F5F20839A01ACCF1092EB010DCF5A
:10144000A1E21A2EAA1BBB1BFD010DC0AA1FBB1FC8
:10145000EE1FFF1FA217B307E407F50720F0A21B3A
:10146000B30BE40BF50B661F771F881F991F1A94A7
:1014700069F760957095809590959B01AC01BD01D1
:10148000CF010895EE0FFF1F0590F491E02D099410
:101490000F931F93CF93DF93869F8001879F100D3B
:1014A000969F100D1124C8010E94640AEC01009758
:1014B00029F0A80170E060E00E94890BCE01DF9165
:1014C000CF911F910F9108950F931F93CF93DF93A7
:1014D0008230910510F482E090E0E091AD02F0914D
:1014E000AE0230E020E0B0E0A0E0309799F42115A2
:1014F000310509F44AC0281B390B24303105D8F5D1
:101500008A819B816115710589F1FB019383828337
:10151000FE0111C040815181028113814817590792
:10152000E0F04817590799F4109761F012960C9360
:10153000129713961C933296CF01DF91CF911F9192
:101540000F9108950093AD021093AE02F4CF2115D0
:10155000310551F04217530738F0A901DB019A0118
:10156000BD01DF01F801C1CFEF01F9CF9093AE02C9
:101570008093AD02CDCFFE01E20FF31F81939193D3
:101580002250310939832883D7CF2091AB02309183
:10159000AC02232B41F420910401309105013093DA
:1015A000AC022093AB02209102013091030121157E
:1015B000310541F42DB73EB7409106015091070126
:1015C000241B350BE091AB02F091AC02E217F3075C
:1015D000A0F42E1B3F0B2817390778F0AC014E5FA3
:1015E0005F4F2417350748F04E0F5F1F5093AC0232
:1015F0004093AB02819391939FCFF0E0E0E09CCFCA
:10160000CF93DF930097E9F0FC01329713821282A7
:10161000A091AD02B091AE02ED0130E020E0109754
:10162000A1F420813181820F931F2091AB02309170
:10163000AC022817390709F061C0F093AC02E093BF
:10164000AB02DF91CF910895EA01CE17DF07E8F5ED
:101650004A815B819E0141155105B1F7E901FB8388
:10166000EA8349915991C40FD51FEC17FD0761F426
:10167000808191810296840F951FE9019983888367
:10168000828193819B838A83F0E0E0E012968D91C2
:101690009C9113970097B9F52D913C911197CD012D
:1016A0000296820F931F2091AB023091AC02281753
:1016B000390739F6309751F51092AE021092AD020B
:1016C000B093AC02A093AB02BCCFD383C283408162
:1016D0005181840F951FC817D90761F44E5F5F4F82
:1016E00088819981480F591F518340838A819B814A
:1016F000938382832115310509F0B0CFF093AE02B8
:10170000E093AD029ECFFD01DC01C0CF13821282B7
:10171000D7CFDC0101C06D9341505040E0F70895F0
:04172000F894FFCF6B
:10172400DC050000AF028000000000006F01CF0064
:10173400FC00D7012D010B011F010000000055031F
:101744004A03660320034303300321030D0A0046C2
:10175400573A312E332C2031342E352E323032305C
:02176400000083
:107E0000112484B714BE81FFF0D085E080938100F7
:107E100082E08093C00088E18093C10086E0809377
:107E2000C20080E18093C4008EE0C9D0259A86E02C
:107E300020E33CEF91E0309385002093840096BBD3
:107E4000B09BFECF1D9AA8958150A9F7CC24DD24C4
:107E500088248394B5E0AB2EA1E19A2EF3E0BF2EE7
:107E6000A2D0813461F49FD0082FAFD0023811F036
:107E7000013811F484E001C083E08DD089C08234E0
:107E800011F484E103C0853419F485E0A6D080C0E4
:107E9000853579F488D0E82EFF2485D0082F10E0AE
:107EA000102F00270E291F29000F111F8ED06801E7
:107EB0006FC0863521F484E090D080E0DECF843638
:107EC00009F040C070D06FD0082F6DD080E0C81688
:107ED00080E7D80618F4F601B7BEE895C0E0D1E017
:107EE00062D089930C17E1F7F0E0CF16F0E7DF06D8
:107EF00018F0F601B7BEE89568D007B600FCFDCFD4
:107F0000A601A0E0B1E02C9130E011968C91119780
:107F100090E0982F8827822B932B1296FA010C0160
:107F200087BEE89511244E5F5F4FF1E0A038BF0790
:107F300051F7F601A7BEE89507B600FCFDCF97BE46
:107F4000E89526C08437B1F42ED02DD0F82E2BD052
:107F50003CD0F601EF2C8F010F5F1F4F84911BD097
:107F6000EA94F801C1F70894C11CD11CFA94CF0C13
:107F7000D11C0EC0853739F428D08EE10CD085E9AC
:107F80000AD08FE07ACF813511F488E018D01DD067
:107F900080E101D065CF982F8091C00085FFFCCF94
:107FA0009093C60008958091C00087FFFCCF809118
:107FB000C00084FD01C0A8958091C6000895E0E648
:107FC000F0E098E1908380830895EDDF803219F02E
:107FD00088E0F5DFFFCF84E1DECF1F93182FE3DFCA
:107FE0001150E9F7F2DF1F91089580E0E8DFEE27F6
:047FF000FF270994CA
:027FFE00040479
:0400000300007E007B
:00000001FF
