:100000000C94AE000C94D6000C94D6000C94D60040
:100010000C94D6000C94D6000C94D6000C94D60008
:100020000C94D6000C94D6000C94D6000C94D600F8
:100030000C94D6000C94D6000C94D6000C94D600E8
:100040000C9450040C94D6000C941E040C94F803E9
:100050000C94D6000C94D6000C94D6000C94D600C8
:100060000C949A040C94D600000000002400270091
:100070002A0000000000250028002B004F53507973
:1000800020706C7567696E2074616E6B206D6F6E89
:1000900069746F7200000000080002010000030490
:1000A0000700000000000000000000000023002600
:1000B00000290004040404040404040202020202ED
:1000C000020303030303030102040810204080011C
:1000D00002040810200102040810204368796261BC
:1000E0002036302073656321000000206D732E00E0
:1000F00054696B204932432062796C20763A0900BA
:10010000207365632E0052657374617274204350CE
:1001100055207A613A2000204845583A0900435258
:1001200043383A090020646174612062797475294A
:1001300000202800567374757020646F204352436A
:100140003A09002C206F75743A09002C2063616C09
:100150003A090050696E673A0900FE0511241FBE76
:10016000CFEFD8E0DEBFCDBF22E0A2E5B1E001C015
:100170001D92A13CB207E1F711E0A0E0B1E0E2E39B
:10018000FBE102C005900D92A235B107D9F710E04E
:10019000CEEAD0E004C02197FE010E946D0BCD3A5B
:1001A000D107C9F70E94A9060C94970D0C94000082
:1001B000E091EB01F091EC01309729F01092E4010D
:1001C0001092E301099408950895AF92BF92CF92DF
:1001D000DF92EF92FF920F931F93CF93DF936C0107
:1001E0007B018B01040F151FEB015E01AE18BF08E8
:1001F000C017D10759F06991D601ED91FC9101909A
:10020000F081E02DC6010995892B79F7C501DF91B1
:10021000CF911F910F91FF90EF90DF90CF90BF9003
:10022000AF900895FC01538D448D252F30E0842F2D
:1002300090E0821B930B541710F0CF96089501970E
:100240000895FC01918D828D981761F0A28DAE0FFB
:10025000BF2FB11D5D968C91928D9F5F9F73928F82
:1002600090E008958FEF9FEF0895FC01918D828DAE
:10027000981731F0828DE80FF11D858D90E008957B
:100280008FEF9FEF0895FC01918D228D892F90E0D3
:10029000805C9F4F821B91098F739927089587E097
:1002A00092E00E94430121E0892B09F420E0822F93
:1002B000089580E090E0892B29F00E944F01811180
:1002C0000C9400000895FC01A48DA80FB92FB11D56
:1002D000A35ABF4F2C91848D90E001968F7399277C
:1002E000848FA689B7892C93A089B1898C9183705A
:1002F00080648C93938D848D981306C00288F38953
:10030000E02D80818F7D80830895EF92FF920F937F
:100310001F93CF93DF93EC0181E0888F9B8D8C8DB1
:1003200098131AC0E889F989808185FF15C09FB7A5
:10033000F894EE89FF896083E889F9898081837068
:10034000806480839FBF81E090E0DF91CF911F9117
:100350000F91FF90EF900895F62E0B8D10E00F5F38
:100360001F4F0F731127E02E8C8D8E110CC00FB60E
:1003700007FCFACFE889F989808185FFF5CFCE01A6
:100380000E946301F1CFEB8DEC0FFD2FF11DE35ABD
:10039000FF4FF0829FB7F8940B8FEA89FB89808129
:1003A0008062CFCF0F931F93CF93DF938C01D0E068
:1003B000C0E0F801EC0FFD1F6491662341F087E077
:1003C00092E00E948501892B11F02196F2CFCE0197
:1003D000DF91CF911F910F910895CF93DF93EC019F
:1003E000888D8823B9F0AA89BB89E889F9898C911D
:1003F00085FD03C0808186FD0DC00FB607FCF7CFD9
:100400008C9185FFF2CF808185FFEDCFCE010E94D8
:100410006301E9CFDF91CF910895833081F028F413
:10042000813099F08230A9F008958730A9F08830A2
:10043000C9F08430B1F4809180008F7D03C0809139
:1004400080008F7780938000089584B58F7784BD76
:10045000089584B58F7DFBCF8091B0008F77809316
:10046000B00008958091B0008F7DF9CF1F93CF9396
:10047000DF93282F30E0F901EB56FF4F8491F9010B
:10048000E953FF4FD491F901ED54FF4FC491CC23B0
:10049000A9F0162F81110E940D02EC2FF0E0EE0F53
:1004A000FF1FEE58FF4FA591B4918FB7F894EC91D0
:1004B000111108C0D095DE23DC938FBFDF91CF915F
:1004C0001F910895DE2BF8CFCF93DF9390E0FC01CE
:1004D000E953FF4F24918D549F4FFC018491882351
:1004E000D1F090E0880F991FFC01E859FF4FA591CA
:1004F000B491FC01EE58FF4FC591D491623071F474
:100500009FB7F8943C91822F809583238C93E88148
:100510002E2B28839FBFDF91CF9108958FB7F8943A
:10052000EC912E2B2C938FBFF6CF3FB7F894809190
:10053000DC019091DD01A091DE01B091DF0126B5D3
:10054000A89B05C02F3F19F00196A11DB11D3FBF0B
:10055000BA2FA92F982F8827BC01CD01620F711DDA
:10056000811D911D42E0660F771F881F991F4A95D4
:10057000D1F708958F929F92AF92BF92CF92DF9260
:10058000EF92FF924B015C010E9495026B017C018E
:100590000E9495026C197D098E099F09683E73407F
:1005A00081059105A8F321E0821A9108A108B108FC
:1005B00088EEC80E83E0D81EE11CF11C8114910462
:1005C000A104B10429F7FF90EF90DF90CF90BF9086
:1005D000AF909F908F9008950895E091E6018091EB
:1005E000E501E81730F4F0E0E554FE4F808190E03B
:1005F00008958FEF9FEF08959091E6018091E501B6
:100600002FEF3FEF981748F4E92FF0E0E554FE4F45
:10061000208130E09F5F9093E601C90108958091A9
:10062000E5019091E601891B990B089590E080E027
:10063000089585ED8093BC001092530110925201F1
:100640008091BC0084FF0BC0209152013091530176
:1006500080910001909101012817390718F010923C
:10066000E201089580915201909153010196909377
:10067000530180935201E4CF20917401260F332758
:10068000331F21323105ECF42091E201FC0190E0AE
:1006900080E0243069F082E00895A09174012191F6
:1006A000AC014C5A5E4FA40FB52FB11D2C9301968F
:1006B000861798F380917401680F6093740180E04D
:1006C000089581E00895CF93DF93CB01EA01642F71
:1006D0000E943C03CE01DF91CF91089581E0809389
:1006E00006028091FD01882341F044E050E061EF73
:1006F00071E081EB92E00C9463038FEF8093F10142
:100700008093F2019EE09093F3018093F401EDCF8A
:10071000CF93DF931F92CDB7DEB7698361E0CE013F
:1007200001960E943C0381E090E00F90DF91CF9111
:100730000895FC0101900020E9F73197AF01481BB3
:10074000590BBC0187E092E00C94E500CF93DF9356
:100750000E94D201EC018CE291E00E9499038C0F7F
:100760009D1FDF91CF9108958F929F92AF92BF927C
:100770000F931F93CF93DF93CDB7DEB7A1970FB63B
:10078000F894DEBF0FBECDBF19A2423008F44AE094
:100790008E010F5D1F4F842E912CB12CA12CA50131
:1007A00094010E944B0BE62FB901CA01EA30F4F420
:1007B000E05DD801EE938D01232B242B252B79F7B7
:1007C00090E080E0109719F0CD010E949903A19666
:1007D0000FB6F894DEBF0FBECDBFDF91CF911F9152
:1007E0000F91BF90AF909F908F900895E95CE1CFFB
:1007F0001F920F920FB60F9211242F933F934F9396
:100800005F936F937F938F939F93AF93BF93EF9378
:10081000FF9387E092E00E946301FF91EF91BF9107
:10082000AF919F918F917F916F915F914F913F9188
:100830002F910F900FBE0F901F9018951F920F923F
:100840000FB60F9211242F938F939F93EF93FF93E3
:10085000E0911702F09118028081E0911D02F09161
:100860001E0282FD1BC09081809120028F5F8F73DA
:1008700020912102821741F0E0912002F0E0E95F2F
:10088000FD4F958F80932002FF91EF919F918F9163
:100890002F910F900FBE0F901F9018958081F4CF6D
:1008A0001F920F920FB60F9211242F933F938F93A5
:1008B0009F93AF93BF938091ED019091EE01A09132
:1008C000EF01B091F0013091DB0123E0230F2D37D0
:1008D00058F50196A11DB11D2093DB018093ED0118
:1008E0009093EE01A093EF01B093F0018091DC01B1
:1008F0009091DD01A091DE01B091DF010196A11D73
:10090000B11D8093DC019093DD01A093DE01B093D3
:10091000DF01BF91AF919F918F913F912F910F90E8
:100920000FBE0F901F90189526E8230F0296A11D69
:10093000B11DD2CF1F920F920FB60F9211242F9399
:100940003F934F935F936F937F938F939F93AF9357
:10095000BF93EF93FF938091B900887F803609F4AD
:100960004AC0F0F5883209F4A7C018F5803109F4BF
:100970009BC0B8F4882309F4F9C0883009F494C006
:10098000FF91EF91BF91AF919F918F917F916F9167
:100990005F914F913F912F910F900FBE0F901F903D
:1009A0001895883109F488C0803251F780939701F7
:1009B00014C0803409F49DC040F48033B9F3883307
:1009C000F9F68093970185ECB0C0803509F485C0B5
:1009D000883509F496C0883499F60E941903D0CF5F
:1009E000883909F48CC038F5883729F050F48836F6
:1009F00011F0803729F683E08093E201109296018E
:100A000057C0883809F47BC0803919F0803809F064
:100A1000B7CF80919601803208F071C0E0919601C5
:100A200081E08E0F809396018091BB00F0E0EA5840
:100A3000FE4F80833DC0803B39F0E0F4803A09F4FA
:100A400079C0883A09F09CCF84E08093E20110924B
:100A5000750110927401E091E901F091EA010995A4
:100A60008091740181110FC081E080937401109214
:100A7000540109C0803C09F4A6CF883C09F4A3CFF7
:100A8000883B09F07DCFE091750181E08E0F809366
:100A90007501F0E0EC5AFE4F80818093BB0090918D
:100AA00075018091740129C08091BA018093BB00C7
:100AB00085EC8093BC0064CF9091B9018091B8011E
:100AC000981758F5E091B90181E08E0F8093B90134
:100AD000F0E0E856FE4F8081E9CFE091B90181E076
:100AE0008E0F8093B9018091BB00F0E0E856FE4F75
:100AF00080839091B9018091B8019817C8F285E878
:100B0000D8CFE091B90181E08E0F8093B901809137
:100B1000BB00F0E0E856FE4F80838091E101811137
:100B20005CCF81E08093E00184EA8093BC00109266
:100B3000E20126CF85EC8093BC001092E201809107
:100B40009601803230F4E0919601F0E0EA58FE4FD1
:100B500010826091960170E0E091E701F091E80168
:100B600086E791E00995109296010ACF10929701BD
:100B700034CFCF92DF92EF92FF920F931F93E82F23
:100B8000F92F05C0015011092109310961F1908146
:100B900096239417B9F305C00150110921093109B1
:100BA00011F1908196239413F7CFC12CD12CE12C15
:100BB000F12C0AC08FEFC81AD80AE80AF80A0C15F7
:100BC0001D052E053F0579F080818623841791F35A
:100BD0006C2D7D2D8E2D9F2D1F910F91FF90EF90ED
:100BE000DF90CF90089560E070E080E090E01F918A
:100BF0000F91FF90EF90DF90CF900895CF931092D8
:100C00000A021092090288EE93E0A0E0B0E080931F
:100C10000B0290930C02A0930D02B0930E028CE095
:100C200091E0909308028093070285EC90E0909306
:100C300014028093130284EC90E090931602809348
:100C4000150280EC90E0909318028093170281ECDB
:100C500090E090931A028093190282EC90E09093B6
:100C60001C0280931B0286EC90E090931E028093FE
:100C70001D02109220021092210210922202109264
:100C8000230284E68093A402C2E3C093A50262E03B
:100C900070E084E690E00E94730B9093A70280932B
:100CA000A60261E070E084E690E00E94730B9093EE
:100CB000A9028093A80261E070E084E690E00E94BF
:100CC000730B9093AB028093AA02C093AC02109274
:100CD000AD021092AE021092AF021092B00280E00C
:100CE0009091A4028917E8F4282F30E0E091A8023F
:100CF000F091A902E20FF31F8083E091AA02F09124
:100D0000AB02E20FF31F8083220F331F4091A60234
:100D10005091A702240F351FF901118210828F5FB5
:100D2000DFCF1092B4021092B30288EE93E0A0E0FD
:100D3000B0E08093B5029093B602A093B702B0934F
:100D4000B8028EE191E09093B2028093B102CF910C
:100D50000895CF93DF93CDB7DEB765970FB6F894BC
:100D6000DEBF0FBECDBF789484B5826084BD84B5EC
:100D7000816084BD85B5826085BD85B5816085BD96
:100D800080916E00816080936E001092810080914E
:100D900081008260809381008091810081608093D6
:100DA0008100809180008160809380008091B100FB
:100DB00084608093B1008091B00081608093B00026
:100DC00080917A00846080937A0080917A008260BA
:100DD00080937A0080917A00816080937A0080917C
:100DE0007A00806880937A001092C10061E083E00D
:100DF0000E94640260E083E00E943602E0911702E4
:100E0000F091180282E08083E0911302F0911402C5
:100E10001082E0911502F091160280E18083109219
:100E20001F02E0911B02F0911C0286E08083E0919A
:100E30001902F0911A02808180618083E091190289
:100E4000F0911A02808188608083E0911902F0910C
:100E50001A02808180688083E0911902F0911A0261
:100E600080818F7D80838CE790E00E94A6038FE2D3
:100E700091E00E9499038CE291E00E94990368EE50
:100E800073E080E090E00E94BA0288E199E20FB638
:100E9000F894A895809360000FBE90936000A89589
:100EA00088E08093BA0088ED90E09093EA01809307
:100EB000E90184EE90E09093E8018093E7011092BD
:100EC000E6011092E5011092E4011092E301109204
:100ED000BC001092E20181E08093E1011092E001F8
:100EE00061E082E10E94360261E083E10E94360205
:100EF0008091B9008E7F8093B9008091B9008D7F79
:100F00008093B90088E48093B80085E48093BC00A6
:100F10008EE693E09093EC018093EB0161E082E038
:100F20000E94640262E084E00E9464029E012F5FDE
:100F30003F4F19014DB75EB75D8B4C8B8091060218
:100F40008823A9F02FB7F8948091ED019091EE01DC
:100F5000A091EF01B091F0012FBF80930202909316
:100F60000302A0930402B093050210920602A89512
:100F70008FB7F8944090ED015090EE016090EF0132
:100F80007090F0018FBF8091FE019091FF01A091C0
:100F90000002B0910102A3019201281B390B4A0BF8
:100FA0005B0BDA01C901C297A105B10508F4D9C0EC
:100FB0004092FE015092FF01609200027092010285
:100FC0008091FD01811125C0E8E9F0E08491EAEC0F
:100FD000F0E01491E6EBF0E0049170E060E00023B3
:100FE00099F081110E940D02E02FF0E0EE0FFF1F3B
:100FF000E755FF4FA591B4918C91182391E080E0C3
:1010000009F490E0692F782FF1E06F2783E00E94C8
:10101000360260E082E00E94360283E090E00197B1
:10102000F1F761E082E00E9436028BE490E00197E4
:10103000F1F760E082E00E943602EBECF0E06491B0
:10104000E7EBF0E08491E82FF0E0EE0FFF1FE755AB
:10105000FF4F8591949100E61AEE20E030E0462F94
:101060000E94B905611571058105910529F06F5F31
:101070007F4F8F4F9F4F9F702AE330E040E050E05A
:101080000E944B0B69013093FC012093FB013091CE
:10109000A40231508091AC0290E0FC01EE0FFF1FE2
:1010A0004091A6025091A702E40FF51F40815181A3
:1010B0004601841A950A092C000CAA08BB08409125
:1010C000AD025091AE026091AF027091B002480D36
:1010D000591D6A1D7B1D4093AD025093AE02609373
:1010E000AF027093B002D182C0824091AA025091A7
:1010F000AB02840F951FDC018C91811183C0E091BC
:10110000AC028091AA029091AB02E80FF92FF11D79
:101110008081831708F4D5C08091AC028F5F8093E3
:10112000AC029091A402891302C01092AC02E0912B
:10113000A5028091A8029091A902E80FF92FF11D54
:10114000808190E0880F991F2091A6023091A7021C
:10115000820F931FDC018D919C919093FA018093F3
:10116000F9018090F9018091FA018A8B1B8A4AE08B
:10117000B1018A899B89880D911D0E94EA0AF101BB
:1011800001900020E9F731978F0102191309B80186
:101190006F5F7F4F90E080E00E94B40C7C0100976D
:1011A00009F4E9C0FC011082B1010E94810D2DB744
:1011B0003EB7201B310B0FB6F8943EBF0FBE2DBFBC
:1011C0004DB75EB74F5F5F4F6A015A01A00EB11E67
:1011D0000115110509F0D2C0ADB7BEB711961C922A
:1011E000F601912CAE16BF0609F4D0C08191982665
:1011F00088E0992D990C97FF02C027E09226815034
:10120000C1F7F0CF482F50E020E0815090E0841BE0
:10121000950BE090A602F090A7026091A802709151
:10122000A9028C01040F151FFB01E00FF11FD080F4
:10123000E091AC02F0E0EE0FFF1FEE0DFF1DAD2DB3
:10124000B0E0AA0FBB1FAE0DBF1DE080F180ED9195
:10125000FC91EE16FF068CF5640F751FFB01D08222
:10126000E091A802F091A902E00FF11FE0816091E6
:10127000AA027091AB02E60FF72FF11D20812F5FBC
:1012800020832091AC026091A8027091A902060F00
:10129000171FD8012C93E091AC026091AA027091C3
:1012A000AB02E60FF72FF11D208121502083415022
:1012B000510921E04111ADCF2FCF222309F41FCFD7
:1012C0002BCF90E0C32ED12C6091A6027091A70283
:1012D0001091AC024091A8025091A9028C159D0575
:1012E0000CF01ACF9C012F5F3F4FFA01E20FF31F62
:1012F000F080E12FF0E0EE0FFF1FE60FF71F0F2D3C
:1013000010E0000F111F600F711F0190F081E02DA0
:10131000DB016D917C916E177F070CF0FDCE840F81
:10132000951FFC01F082E091A802F091A902E20F62
:10133000F31FE0818091AA029091AB02E80FF92F90
:10134000F11D8081815080838091AC02E091A802E0
:10135000F091A902E20FF31F8083E091AC0280912B
:10136000AA029091AB02E80FF92FF11D80818F5FE7
:101370008083C901A9CF10E000E019CFA801B7010F
:10138000C6010E94880DF50110822ACF8091F501D7
:101390009091F601A091F701B091F801A30192019B
:1013A000281B390B4A0B5B0BDA01C901883E9340BD
:1013B000A105B10508F4ADC04092F5015092F601C7
:1013C0006092F7017092F80183E591E00E94D201EA
:1013D0006091FB017091FC0190E080E04AE00E9486
:1013E000B4038BE491E00E94D2014AE060E070E037
:1013F000CB010E94B40383E491E00E94D20160918A
:10140000F9017091FA0190E080E04AE00E94B40393
:101410008CE291E00E94990384E391E00E94D20162
:10142000C6010E94990381E391E00E94D201B801B4
:1014300090E080E04AE00E94B40385E291E00E94DF
:10144000A6038EE191E00E94D201492C512C712C0F
:10145000612C4AE0C301B2010E94B40387E191E02C
:101460000E94D20140E1C301B2010E94B4038CE2A8
:1014700091E00E94990386E091E00E94D201609180
:10148000020270910302809104029091050228EEFD
:1014900033E040E050E00E944B0B29013A018CE31D
:1014A000480E511C611C711C2FB7F8946091ED011E
:1014B0007091EE018091EF019091F0012FBF28EE25
:1014C00033E040E050E00E944B0BC301B201621BCD
:1014D000730B840B950B4AE00E94B40380E091E00B
:1014E0000E94A60380EF90E00E94D2016091020268
:1014F0007091030280910402909105024AE00E94DB
:10150000B4038BEE90E00E94A6038AEE90E00E9466
:10151000A6039A899093F1018092F2018EE0809364
:10152000F3019092F4018091F9019091FA014A97A8
:1015300008F44DC081E08093FD0161E083E00E94EA
:1015400036028FB7F8944091ED015091EE01609111
:10155000EF017091F0018FBF809102029091030220
:10156000A0910402B0910502805A9541AF4FBF4F40
:1015700084179507A607B70780F489EE90E00E94CC
:10158000A6038BED90E00E94A60364E670E080E085
:1015900090E00E94BA020C940000E114F10419F0EA
:1015A000C7010E942B0CAC89BD890FB6F894BEBF51
:1015B0000FBEADBF80E090E0892B09F4BBCC0E9448
:1015C0004F01882309F4B6CC0E940000B3CC1092DE
:1015D000FD01B7CFBB27FB015527AA27880F991F0D
:1015E000AA1FA41710F0A41B83955051B9F7A05D52
:1015F000AA3308F0A95DA193009779F7B111B193CF
:101600001192CB010C94040BDC01FC01672F71914A
:101610007723E1F7329704C07C916D9370836291D8
:10162000AE17BF07C8F308952F923F924F925F9273
:101630006F927F928F929F92AF92BF92CF92DF92E2
:10164000EF92FF920F931F93CF93DF93CDB7DEB747
:10165000CA1BDB0B0FB6F894DEBF0FBECDBF0994DB
:101660002A88398848885F846E847D848C849B8432
:10167000AA84B984C884DF80EE80FD800C811B8140
:10168000AA81B981CE0FD11D0FB6F894DEBF0FBE6F
:10169000CDBFED010895A1E21A2EAA1BBB1BFD01CF
:1016A0000DC0AA1FBB1FEE1FFF1FA217B307E40741
:1016B000F50720F0A21BB30BE40BF50B661F771F99
:1016C000881F991F1A9469F7609570958095909579
:1016D0009B01AC01BD01CF010895EE0FFF1F0590E6
:1016E000F491E02D09940F931F93CF93DF93869F7E
:1016F0008001879F100D969F100D1124C8010E9434
:101700008F0BEC01009729F0A80170E060E00E94C7
:101710007A0DCE01DF91CF911F910F9108950F9314
:101720001F93CF93DF938230910510F482E090E015
:10173000E091BF02F091C00230E020E0B0E0A0E014
:10174000309799F42115310509F44AC0281B390B4B
:1017500024303105D8F58A819B816115710589F1A5
:10176000FB0193838283FE0111C04081518102817C
:10177000138148175907E0F04817590799F4109753
:1017800061F012960C93129713961C933296CF0128
:10179000DF91CF911F910F9108950093BF02109395
:1017A000C002F4CF2115310551F04217530738F02C
:1017B000A901DB019A01BD01DF01F801C1CFEF01F1
:1017C000F9CF9093C0028093BF02CDCFFE01E20F0C
:1017D000F31F819391932250310939832883D7CF06
:1017E0002091BD023091BE02232B41F420910401CF
:1017F000309105013093BE022093BD022091020179
:10180000309103012115310541F42DB73EB74091C8
:10181000060150910701241B350BE091BD02F091A8
:10182000BE02E217F307A0F42E1B3F0B281739075F
:1018300078F0AC014E5F5F4F2417350748F04E0F2C
:101840005F1F5093BE024093BD02819391939FCF3F
:10185000F0E0E0E09CCFCF93DF930097E9F0FC014C
:10186000329713821282A091BF02B091C002ED01A3
:1018700030E020E01097A1F420813181820F931F86
:101880002091BD023091BE022817390709F061C0CE
:10189000F093BE02E093BD02DF91CF910895EA017B
:1018A000CE17DF07E8F54A815B819E01411551059E
:1018B000B1F7E901FB83EA8349915991C40FD51F20
:1018C000EC17FD0761F4808191810296840F951FCA
:1018D000E90199838883828193819B838A83F0E0E5
:1018E000E0E012968D919C9113970097B9F52D9198
:1018F0003C911197CD010296820F931F2091BD025A
:101900003091BE022817390739F6309751F51092F9
:10191000C0021092BF02B093BE02A093BD02BCCF22
:10192000D383C28340815181840F951FC817D90783
:1019300061F44E5F5F4F88819981480F591F518331
:1019400040838A819B81938382832115310509F02D
:10195000B0CFF093C002E093BF029ECFFD01DC0147
:10196000C0CF13821282D7CFB0E0A0E0EAEBFCE058
:101970000C94160B8C01009751F4CB010E948F0B35
:101980008C01C801CDB7DEB7E0E10C94320BFC014D
:10199000E60FF71F9C0122503109E217F30708F404
:1019A0009DC0D901CD91DC911197C617D70798F04A
:1019B000C530D10530F3CE0104978617970708F399
:1019C000C61BD70B2297C193D1936D937C93CF0104
:1019D0000E942B0CD6CF5B01AC1ABD0A4C018C0EB9
:1019E0009D1EA091BF02B091C002512C412CF12C40
:1019F000E12C109731F58091BD029091BE028815BF
:101A0000990509F05CC04616570608F058C0809149
:101A1000020190910301009741F48DB79EB7409168
:101A2000060150910701841B950BE817F90708F090
:101A300055C0F093BE02E093BD02F901718360834B
:101A4000A0CF8D919C91119712966C90129713963E
:101A50007C901397A815B90559F56C0142E0C40EA6
:101A6000D11CCA14DB0420F1AC014A195B09DA016C
:101A70001296159780F06282738251834083D90158
:101A80006D937C93E114F10471F0D7011396FC93EC
:101A9000EE93129776CF22968C0F9D1FF9019183BA
:101AA0008083F301EFCFF093C002E093BF0269CFD0
:101AB0004816590608F42C017D01D3019ACFCB01B9
:101AC0000E948F0B7C01009749F0AE01B8010E9483
:101AD000710DC8010E942B0C870153CF10E000E06C
:101AE00050CFFB01DC0102C001900D9241505040EB
:101AF000D8F70895DC0101C06D9341505040E0F7E4
:101B00000895FB01DC0101900D920020E1F708959A
:101B1000FB01DC014150504048F001900D92002043
:101B2000C9F701C01D9241505040E0F70895F89464
:021B3000FFCFE5
:101B3200DC050000C1028000000000008501E50014
:101B42001201ED014301210135010000000088036B
:101B520063031603EC020F03FC02ED020D0A0049B7
:101B62003243206164723A20307830342C20465758
:101B72003A312E342C2032382E30362E3230323258
:021B8200000061
:00000001FF
