:100000000C946E000C9496000C9496000C94960040
:100010000C9496000C9496000C9496000C94960008
:100020000C9496000C9496000C9496000C949600F8
:100030000C9496000C9496000C9496000C949600E8
:100040000C9497030C9496000C9465030C943F0356
:100050000C9496000C9496000C9496000C949600C8
:100060000C94E1030C94960000000000240027008B
:100070002A0000000000250028002B0000000008D6
:10008000000201000003040700000000000000005F
:1000900000000000230026002900040404040404D6
:1000A0000404020202020202030303030303010227
:1000B00004081020408001020408102001020408F6
:1000C00010202C206F75743A20002C2063616C3A4C
:1000D000200070696E673A200000450511241FBE9C
:1000E000CFEFD8E0DEBFCDBF11E0A0E0B1E0EAE99C
:1000F000F4E102C005900D92AE32B107D9F722E0CB
:10010000AEE2B1E001C01D92AF38B207E1F710E0F6
:10011000CEE6D0E004C02197FE010E94FD08CD3656
:10012000D107C9F70E94EC050C944B0A0C9400000F
:10013000E091C501F091C601309729F01092C201FB
:100140001092C101099408950895AF92BF92CF9281
:10015000DF92EF92FF920F931F93CF93DF936C0187
:100160007B018B01040F151FEB015E01AE18BF0868
:10017000C017D10759F06991D601ED91FC9101901A
:10018000F081E02DC6010995892B79F7C501DF9132
:10019000CF911F910F91FF90EF90DF90CF90BF9084
:1001A000AF900895FC01538D448D252F30E0842FAE
:1001B00090E0821B930B541710F0CF96089501978F
:1001C0000895FC01918D828D981761F0A28DAE0F7C
:1001D000BF2FB11D5D968C91928D9F5F9F73928F03
:1001E00090E008958FEF9FEF0895FC01918D828D2F
:1001F000981731F0828DE80FF11D858D90E00895FC
:100200008FEF9FEF0895FC01918D228D892F90E053
:10021000805C9F4F821B91098F739927089585ED0C
:1002200091E00E94030121E0892B09F420E0822F54
:10023000089580E090E0892B29F00E940F01811140
:100240000C9400000895FC01A48DA80FB92FB11DD6
:10025000A35ABF4F2C91848D90E001968F739927FC
:10026000848FA689B7892C93A089B1898C918370DA
:1002700080648C93938D848D981306C00288F389D3
:10028000E02D80818F7D80830895EF92FF920F9300
:100290001F93CF93DF93EC0181E0888F9B8D8C8D32
:1002A00098131AC0E889F989808185FF15C09FB726
:1002B000F894EE89FF896083E889F98980818370E9
:1002C000806480839FBF81E090E0DF91CF911F9198
:1002D0000F91FF90EF900895F62E0B8D10E00F5FB9
:1002E0001F4F0F731127E02E8C8D8E110CC00FB68F
:1002F00007FCFACFE889F989808185FFF5CFCE0127
:100300000E942301F1CFEB8DEC0FFD2FF11DE35A7D
:10031000FF4FF0829FB7F8940B8FEA89FB898081A9
:100320008062CFCF0F931F93CF93DF938C01D0E0E8
:10033000C0E0F801EC0FFD1F6491662341F085EDEC
:1003400091E00E944501892B11F02196F2CFCE0158
:10035000DF91CF911F910F910895CF93DF93EC011F
:10036000888D8823B9F0AA89BB89E889F9898C919D
:1003700085FD03C0808186FD0DC00FB607FCF7CF59
:100380008C9185FFF2CF808185FFEDCFCE010E9459
:100390002301E9CFDF91CF91089590E0FC01E4586B
:1003A000FF4F2491FC01E255FF4F3491FC01E656CA
:1003B000FF4FE491EE23C9F0222339F0233001F1FD
:1003C000A8F4213019F1223029F1F0E0EE0FFF1FDF
:1003D000EE58FF4FA591B4918FB7F894EC9161114D
:1003E00026C030953E233C938FBF08952730A9F057
:1003F0002830C9F0243049F7809180008F7D03C0F8
:10040000809180008F7780938000DFCF84B58F77D5
:1004100084BDDBCF84B58F7DFBCF8091B0008F771B
:100420008093B000D2CF8091B0008F7DF9CF3E2B6A
:10043000DACFCF93DF9390E0FC01E255FF4F249198
:1004400086569F4FFC0184918823D1F090E0880F5D
:10045000991FFC01E859FF4FA591B491FC01EE589A
:10046000FF4FC591D49161110EC09FB7F8948C9144
:10047000E22FE0958E238C932881E223E8839FBFAF
:10048000DF91CF9108958FB7F894EC91E22BEC9324
:100490008FBFF6CF3FB7F8948091B6019091B70126
:1004A000A091B801B091B90126B5A89B05C02F3F16
:1004B00019F00196A11DB11D3FBFBA2FA92F982F8A
:1004C0008827BC01CD01620F711D811D911D42E085
:1004D000660F771F881F991F4A95D1F7089585EDFC
:1004E0008093BC008091BC0084FDFCCF1092C001C1
:1004F000089520916E01260F3327331F21323105D5
:10050000ECF42091C001FC0190E080E0243069F01F
:1005100082E00895A0916E012191AC01425B5E4F93
:10052000A40FB52FB11D2C930196861798F38091D7
:100530006E01680F60936E0180E0089581E0089578
:100540000895E091C4018091C301E81730F4F0E010
:10055000E25DFE4F808190E008958FEF9FEF089558
:100560009091C4018091C3012FEF3FEF981748F499
:10057000E92FF0E0E25DFE4F208130E09F5F909335
:10058000C401C90108958091C3019091C401891BE0
:10059000990B0895CF93DF93CB01EA01642F0E945A
:1005A0007902CE01DF91CF91089542E050E06BECEB
:1005B00071E082E792E00C94CA02CF93DF931F921E
:1005C000CDB7DEB7698361E0CE0101960E94790262
:1005D00081E090E00F90DF91CF91089590E080E06E
:1005E00008958F929F92AF92BF920F931F93CF93D4
:1005F000DF93CDB7DEB7A1970FB6F894DEBF0FBE7D
:10060000CDBF19A2423008F44AE08E010F5D1F4FA2
:10061000842E912CB12CA12CA50194010E94BC0820
:10062000E62FB901CA01EA3044F5E05DD801EE9346
:100630008D01232B242B252B79F790E080E0109758
:1006400069F0FD0101900020E9F73197AF014A1BE5
:100650005B0BBD0185ED91E00E94A500A1960FB650
:10066000F894DEBF0FBECDBFDF91CF911F910F91E8
:10067000BF90AF909F908F900895E95CD7CF1F9265
:100680000F920FB60F9211242F933F934F935F93C6
:100690006F937F938F939F93AF93BF93EF93FF934A
:1006A00085ED91E00E942301FF91EF91BF91AF9101
:1006B0009F918F917F916F915F914F913F912F917A
:1006C0000F900FBE0F901F9018951F920F920FB6AC
:1006D0000F9211242F938F939F93EF93FF93E091A9
:1006E000E501F091E6018081E091EB01F091EC01F0
:1006F00082FD1BC090818091EE018F5F8F732091EE
:10070000EF01821741F0E091EE01F0E0EB52FE4F75
:10071000958F8093EE01FF91EF919F918F912F9193
:100720000F900FBE0F901F9018958081F4CF1F92ED
:100730000F920FB60F9211242F933F938F939F9395
:10074000AF93BF938091C7019091C801A091C90157
:10075000B091CA013091B50123E0230F2D3758F530
:100760000196A11DB11D2093B5018093C7019093FF
:10077000C801A093C901B093CA018091B6019091BC
:10078000B701A091B801B091B9010196A11DB11DA9
:100790008093B6019093B701A093B801B093B901CB
:1007A000BF91AF919F918F913F912F910F900FBE6D
:1007B0000F901F90189526E8230F0296A11DB11DDA
:1007C000D2CF1F920F920FB60F9211242F933F9307
:1007D0004F935F936F937F938F939F93AF93BF9349
:1007E000EF93FF938091B900887F803609F44AC067
:1007F000F0F5883209F4A7C018F5803109F49BC0E0
:10080000B8F4882309F4F9C0883009F494C0FF9142
:10081000EF91BF91AF919F918F917F916F915F9178
:100820004F913F912F910F900FBE0F901F901895F1
:10083000883109F488C0803251F78093910114C047
:10084000803409F49DC040F48033B9F38833F9F65D
:100850008093910185ECB0C0803509F485C088355E
:1008600009F496C0883499F60E946F02D0CF883977
:1008700009F48CC038F5883729F050F4883611F027
:10088000803729F683E08093C0011092900157C011
:10089000883809F47BC0803919F0803809F0B7CF67
:1008A00080919001803208F071C0E091900181E068
:1008B0008E0F809390018091BB00F0E0E059FE4FD5
:1008C00080833DC0803B39F0E0F4803A09F479C080
:1008D000883A09F09CCF84E08093C00110926F01A8
:1008E00010926E01E091BC01F091BD0109958091DB
:1008F0006E0181110FC081E080936E0110924E0154
:1009000009C0803C09F4A6CF883C09F4A3CF883BFA
:1009100009F07DCFE0916F0181E08E0F80936F0130
:10092000F0E0E25BFE4F80818093BB0090916F010D
:1009300080916E0129C08091B4018093BB0085EC49
:100940008093BC0064CF9091B3018091B20198175D
:1009500058F5E091B30181E08E0F8093B301F0E090
:10096000EE56FE4F8081E9CFE091B30181E08E0F1A
:100970008093B3018091BB00F0E0EE56FE4F808380
:100980009091B3018091B2019817C8F285E8D8CF51
:10099000E091B30181E08E0F8093B3018091BB00A1
:1009A000F0E0EE56FE4F80838091BF0181115CCF55
:1009B00081E08093BE0184EA8093BC001092C00164
:1009C00026CF85EC8093BC001092C00180919001ED
:1009D000803230F4E0919001F0E0E059FE4F108257
:1009E0006091900170E0E091BA01F091BB0180E765
:1009F00091E00995109290010ACF1092910134CFA5
:100A0000CF92DF92EF92FF920F931F93E82FF92F6F
:100A100005C0015011092109310961F19081962326
:100A20009417B9F305C0015011092109310911F1D9
:100A3000908196239413F7CFC12CD12CE12CF12C6B
:100A40000AC08FEFC81AD80AE80AF80A0C151D0563
:100A50002E053F0579F080818623841791F36C2D54
:100A60007D2D8E2D9F2D1F910F91FF90EF90DF9088
:100A7000CF90089560E070E080E090E01F910F91CA
:100A8000FF90EF90DF90CF900895CF931092D80110
:100A90001092D70188EE93E0A0E0B0E08093D901F6
:100AA0009093DA01A093DB01B093DC012AE031E0FE
:100AB0003093D6012093D50125EC30E03093E2014C
:100AC0002093E10124EC30E03093E4012093E30132
:100AD00020EC30E03093E6012093E50121EC30E09A
:100AE0003093E8012093E70122EC30E03093EA01F3
:100AF0002093E90126EC30E03093EC012093EB01E8
:100B00001092EE011092EF011092F0011092F1019B
:100B1000109275021092740280937602909377027D
:100B2000A0937802B09379028CE191E090937302E4
:100B30008093720284E680937E02C2E3C0937F02B8
:100B400062E070E084E690E00E94030990938102E5
:100B50008093800261E070E084E690E00E940309E7
:100B6000909383028093820261E070E084E690E0DB
:100B70000E9403099093850280938402C0938602A9
:100B800010928702109288021092890210928A02B3
:100B900080E090917E028917E8F4282F30E0E09100
:100BA0008202F0918302E20FF31F8083E0918402BE
:100BB000F0918502E20FF31F8083220F331F4091D3
:100BC000800250918102240F351FF9011182108299
:100BD0008F5FDFCFCF910895789484B5826084BD14
:100BE00084B5816084BD85B5826085BD85B5816031
:100BF00085BD80916E00816080936E0010928100AF
:100C00008091810082608093810080918100816069
:100C1000809381008091800081608093800080912A
:100C2000B10084608093B1008091B00081608093B6
:100C3000B00080917A00846080937A0080917A007D
:100C4000826080937A0080917A00816080937A003C
:100C500080917A00806880937A001092C10010928F
:100C6000C4011092C3011092C2011092C1011092EE
:100C7000C00181E08093BF011092BE0161E082E17A
:100C80000E94CD0161E083E10E94CD018091B90015
:100C90008E7F8093B9008091B9008D7F8093B900D9
:100CA00088E48093B80085E48093BC0088E990E0F4
:100CB0009093BD018093BC0184EA90E09093BB01C6
:100CC0008093BA0188E08093BA0085ED92E090931A
:100CD000C6018093C50160E088E00E941902E0919E
:100CE000E501F091E60182E08083E091E101F0917D
:100CF000E2011082E091E301F091E40180E1808360
:100D00001092ED01E091E901F091EA0186E0808323
:100D1000E091E701F091E801808180618083E091BA
:100D2000E701F091E801808188608083E091E7012C
:100D3000F091E801808180688083E091E701F09183
:100D4000E80180818F7D808361E083E00E94190249
:100D500060E083E00E94CD0188E198E20FB6F8944C
:100D6000A895809360000FBE909360003FE0232E13
:100D7000312C4AE3C42ED12CE12CF12C61E088E027
:100D80000E94190260E088E00E94CD0183E090E0BB
:100D90000197F1F761E088E00E94CD01C101019760
:100DA000F1F760E088E00E94CD0160E088E00E94F9
:100DB0001902E6EBF0E06491E2EAF0E08491E82FBA
:100DC000F0E0EE0FFF1FE057FF4F8591949100E494
:100DD00012E42FE030E0462F0E94000561157105F6
:100DE0008105910529F06F5F7F4F8F4F9F4F9F7057
:100DF000072E000C880B990BA70196010E94DE08B4
:100E00003093D4012093D30180917E029091860289
:100E1000A92FB0E0FD01EE0FFF1F609180027091DD
:100E20008102E60FF71F608171814901861A970AD6
:100E3000092C000CAA08BB08409087025090880239
:100E40006090890270908A02840C951CA61CB71CC5
:100E50008092870290928802A0928902B0928A02C0
:100E6000318320832091840230918502A9014A0FA9
:100E70005B1FFA01A080A110C8C08150E0918602DA
:100E80002091840230918502E20FF32FF11D208121
:100E9000281708F41BC1809186028F5F8093860219
:100EA00090917E02891302C010928602E0917F0227
:100EB0008091820290918302E80FF92FF11D8081C9
:100EC00090E0880F991F2091800230918102820F5B
:100ED000931FFC01808191819093D2018093D10175
:100EE0002FB7F8948091C7019091C801A091C901D2
:100EF000B091CA012FBF4091CD015091CE016091B8
:100F0000CF017091D0018C019D01041B150B260BA4
:100F1000370BB901A801483E534061057105A0F1A6
:100F20008093CD019093CE01A093CF01B093D001D7
:100F300082ED90E00E9492016091D3017091D40102
:100F400090E080E04AE00E94F1028AEC90E00E948A
:100F500092014AE060E070E0CB010E94F10282EC75
:100F600090E00E9492016091D1017091D20190E0D5
:100F700080E04AE00E94F10242E050E06AE271E063
:100F800085ED91E00E94A5008091D1019091D20160
:100F90009093CB018093CC0161E0069708F460E068
:100FA00083E00E94CD010E944A024B015C018AE06D
:100FB000482E512C612C712C0E944A026819790923
:100FC0008A099B09683E734081059105A8F321E0D9
:100FD000421A51086108710838EE830E33E0931EFF
:100FE000A11CB11C411451046104710429F7A89596
:100FF00000E010E0012B09F4C1CE0E940F0188230C
:1010000009F4BCCE0E940000B9CE2A2D30E090E059
:10101000AA94B12CA21AB30AA0918002B0918102C5
:101020004091820250918302B501620F731FFA0151
:10103000E60FF71F1081E0918602F0E0EE0FFF1F30
:10104000EA0FFB1FC12FD0E0CC0FDD1FAC0FBD1F7F
:101050000190F081E02D0D90BC91A02DEA17FB07C7
:101060008CF5420F531FFA011083E0918202F09138
:101070008302E60FF71FE0814091840250918502C0
:10108000E40FF52FF11D90819F5F90839091860270
:101090004091820250918302640F751FFB0190837F
:1010A000E09186024091840250918502E40FF52F71
:1010B000F11D9081915090832150310991E02111CF
:1010C000ABCFE9CE992309F4D8CEE5CE30E090E05D
:1010D000C0918002D091810240918602A09182024B
:1010E000B0918302281739070CF0D5CEB9016F5F94
:1010F0007F4FFD01E60FF71F1081E42FF0E0EE0FA8
:10110000FF1FEC0FFD1F412F50E0440F551FC40F70
:10111000D51F40815181E881F981E417F5070CF072
:10112000BACEA20FB31F1C93E0918202F09183020A
:10113000E60FF71FE0812091840230918502E20FD3
:10114000F32FF11D20812150208320918602E09110
:101150008202F0918302E60FF71F2083E09186025E
:101160002091840230918502E20FF32FF11D20813E
:101170002F5F20839B01ACCFA1E21A2EAA1BBB1BC1
:10118000FD010DC0AA1FBB1FEE1FFF1FA217B30753
:10119000E407F50720F0A21BB30BE40BF50B661F69
:1011A000771F881F991F1A9469F76095709580952D
:1011B00090959B01AC01BD01CF010895052E97FBD1
:1011C0001EF400940E94F50857FD07D00E94BC0849
:1011D00007FC03D04EF40C94F508509540953095DB
:1011E00021953F4F4F4F5F4F089590958095709593
:1011F00061957F4F8F4F9F4F0895EE0FFF1F059012
:10120000F491E02D09940F931F93CF93DF93869F62
:101210008001879F100D969F100D1124C8010E9418
:101220001F09EC01009729F0A80170E060E00E941E
:10123000440ACE01DF91CF911F910F9108950F9332
:101240001F93CF93DF938230910510F482E090E0FA
:10125000E0918D02F0918E0230E020E0B0E0A0E05D
:10126000309799F42115310509F44AC0281B390B30
:1012700024303105D8F58A819B816115710589F18A
:10128000FB0193838283FE0111C040815181028161
:10129000138148175907E0F04817590799F4109738
:1012A00061F012960C93129713961C933296CF010D
:1012B000DF91CF911F910F91089500938D021093AC
:1012C0008E02F4CF2115310551F04217530738F043
:1012D000A901DB019A01BD01DF01F801C1CFEF01D6
:1012E000F9CF90938E0280938D02CDCFFE01E20F55
:1012F000F31F819391932250310939832883D7CFEB
:1013000020918B0230918C02232B41F42091020119
:101310003091030130938C0220938B0220910001C5
:10132000309101012115310541F42DB73EB74091AF
:10133000040150910501241B350BE0918B02F091C3
:101340008C02E217F307A0F42E1B3F0B2817390776
:1013500078F0AC014E5F5F4F2417350748F04E0F11
:101360005F1F50938C0240938B02819391939FCF88
:10137000F0E0E0E09CCFCF93DF930097E9F0FC0131
:10138000329713821282A0918D02B0918E02ED01EC
:1013900030E020E01097A1F420813181820F931F6B
:1013A00020918B0230918C022817390709F061C017
:1013B000F0938C02E0938B02DF91CF910895EA01C4
:1013C000CE17DF07E8F54A815B819E014115510583
:1013D000B1F7E901FB83EA8349915991C40FD51F05
:1013E000EC17FD0761F4808191810296840F951FAF
:1013F000E90199838883828193819B838A83F0E0CA
:10140000E0E012968D919C9113970097B9F52D917C
:101410003C911197CD010296820F931F20918B0270
:1014200030918C022817390739F6309751F5109210
:101430008E0210928D02B0938C02A0938B02BCCFCF
:10144000D383C28340815181840F951FC817D90768
:1014500061F44E5F5F4F88819981480F591F518316
:1014600040838A819B81938382832115310509F012
:10147000B0CFF0938E02E0938D029ECFFD01DC0190
:10148000C0CF13821282D7CFDC0101C06D934150CF
:0A1490005040E0F70895F894FFCFF4
:10149A0000008F028000000000004501A500D20074
:1014AA00AD010301E100F50000000000DD02CA02FF
:0E14BA00EE02A002C302B002A1020D0A000061
:00000001FF
